{
  "contractName": "FlightSeatsGlobalDistributor",
  "abi": [
    {
      "constant": true,
      "inputs": [
        {
          "name": "_interfaceId",
          "type": "bytes4"
        }
      ],
      "name": "supportsInterface",
      "outputs": [
        {
          "name": "",
          "type": "bool"
        }
      ],
      "payable": false,
      "stateMutability": "view",
      "type": "function"
    },
    {
      "constant": true,
      "inputs": [],
      "name": "name",
      "outputs": [
        {
          "name": "",
          "type": "string"
        }
      ],
      "payable": false,
      "stateMutability": "view",
      "type": "function"
    },
    {
      "constant": true,
      "inputs": [
        {
          "name": "_tokenId",
          "type": "uint256"
        }
      ],
      "name": "getApproved",
      "outputs": [
        {
          "name": "",
          "type": "address"
        }
      ],
      "payable": false,
      "stateMutability": "view",
      "type": "function"
    },
    {
      "constant": false,
      "inputs": [
        {
          "name": "_to",
          "type": "address"
        },
        {
          "name": "_tokenId",
          "type": "uint256"
        }
      ],
      "name": "approve",
      "outputs": [],
      "payable": false,
      "stateMutability": "nonpayable",
      "type": "function"
    },
    {
      "constant": true,
      "inputs": [],
      "name": "totalSupply",
      "outputs": [
        {
          "name": "",
          "type": "uint256"
        }
      ],
      "payable": false,
      "stateMutability": "view",
      "type": "function"
    },
    {
      "constant": true,
      "inputs": [],
      "name": "InterfaceId_ERC165",
      "outputs": [
        {
          "name": "",
          "type": "bytes4"
        }
      ],
      "payable": false,
      "stateMutability": "view",
      "type": "function"
    },
    {
      "constant": false,
      "inputs": [
        {
          "name": "_from",
          "type": "address"
        },
        {
          "name": "_to",
          "type": "address"
        },
        {
          "name": "_tokenId",
          "type": "uint256"
        }
      ],
      "name": "transferFrom",
      "outputs": [],
      "payable": false,
      "stateMutability": "nonpayable",
      "type": "function"
    },
    {
      "constant": true,
      "inputs": [
        {
          "name": "_owner",
          "type": "address"
        },
        {
          "name": "_index",
          "type": "uint256"
        }
      ],
      "name": "tokenOfOwnerByIndex",
      "outputs": [
        {
          "name": "",
          "type": "uint256"
        }
      ],
      "payable": false,
      "stateMutability": "view",
      "type": "function"
    },
    {
      "constant": false,
      "inputs": [],
      "name": "unpause",
      "outputs": [],
      "payable": false,
      "stateMutability": "nonpayable",
      "type": "function"
    },
    {
      "constant": false,
      "inputs": [
        {
          "name": "_from",
          "type": "address"
        },
        {
          "name": "_to",
          "type": "address"
        },
        {
          "name": "_tokenId",
          "type": "uint256"
        }
      ],
      "name": "safeTransferFrom",
      "outputs": [],
      "payable": false,
      "stateMutability": "nonpayable",
      "type": "function"
    },
    {
      "constant": true,
      "inputs": [
        {
          "name": "_tokenId",
          "type": "uint256"
        }
      ],
      "name": "exists",
      "outputs": [
        {
          "name": "",
          "type": "bool"
        }
      ],
      "payable": false,
      "stateMutability": "view",
      "type": "function"
    },
    {
      "constant": true,
      "inputs": [
        {
          "name": "_index",
          "type": "uint256"
        }
      ],
      "name": "tokenByIndex",
      "outputs": [
        {
          "name": "",
          "type": "uint256"
        }
      ],
      "payable": false,
      "stateMutability": "view",
      "type": "function"
    },
    {
      "constant": true,
      "inputs": [],
      "name": "paused",
      "outputs": [
        {
          "name": "",
          "type": "bool"
        }
      ],
      "payable": false,
      "stateMutability": "view",
      "type": "function"
    },
    {
      "constant": true,
      "inputs": [
        {
          "name": "_tokenId",
          "type": "uint256"
        }
      ],
      "name": "ownerOf",
      "outputs": [
        {
          "name": "",
          "type": "address"
        }
      ],
      "payable": false,
      "stateMutability": "view",
      "type": "function"
    },
    {
      "constant": true,
      "inputs": [
        {
          "name": "_owner",
          "type": "address"
        }
      ],
      "name": "balanceOf",
      "outputs": [
        {
          "name": "",
          "type": "uint256"
        }
      ],
      "payable": false,
      "stateMutability": "view",
      "type": "function"
    },
    {
      "constant": false,
      "inputs": [],
      "name": "renounceOwnership",
      "outputs": [],
      "payable": false,
      "stateMutability": "nonpayable",
      "type": "function"
    },
    {
      "constant": false,
      "inputs": [],
      "name": "pause",
      "outputs": [],
      "payable": false,
      "stateMutability": "nonpayable",
      "type": "function"
    },
    {
      "constant": true,
      "inputs": [],
      "name": "owner",
      "outputs": [
        {
          "name": "",
          "type": "address"
        }
      ],
      "payable": false,
      "stateMutability": "view",
      "type": "function"
    },
    {
      "constant": true,
      "inputs": [],
      "name": "symbol",
      "outputs": [
        {
          "name": "",
          "type": "string"
        }
      ],
      "payable": false,
      "stateMutability": "view",
      "type": "function"
    },
    {
      "constant": true,
      "inputs": [
        {
          "name": "",
          "type": "uint256"
        }
      ],
      "name": "activeAirlines",
      "outputs": [
        {
          "name": "",
          "type": "address"
        }
      ],
      "payable": false,
      "stateMutability": "view",
      "type": "function"
    },
    {
      "constant": false,
      "inputs": [
        {
          "name": "_to",
          "type": "address"
        },
        {
          "name": "_approved",
          "type": "bool"
        }
      ],
      "name": "setApprovalForAll",
      "outputs": [],
      "payable": false,
      "stateMutability": "nonpayable",
      "type": "function"
    },
    {
      "constant": false,
      "inputs": [
        {
          "name": "_from",
          "type": "address"
        },
        {
          "name": "_to",
          "type": "address"
        },
        {
          "name": "_tokenId",
          "type": "uint256"
        },
        {
          "name": "_data",
          "type": "bytes"
        }
      ],
      "name": "safeTransferFrom",
      "outputs": [],
      "payable": false,
      "stateMutability": "nonpayable",
      "type": "function"
    },
    {
      "constant": true,
      "inputs": [
        {
          "name": "_tokenId",
          "type": "uint256"
        }
      ],
      "name": "tokenURI",
      "outputs": [
        {
          "name": "",
          "type": "string"
        }
      ],
      "payable": false,
      "stateMutability": "view",
      "type": "function"
    },
    {
      "constant": true,
      "inputs": [
        {
          "name": "_owner",
          "type": "address"
        },
        {
          "name": "_operator",
          "type": "address"
        }
      ],
      "name": "isApprovedForAll",
      "outputs": [
        {
          "name": "",
          "type": "bool"
        }
      ],
      "payable": false,
      "stateMutability": "view",
      "type": "function"
    },
    {
      "constant": false,
      "inputs": [
        {
          "name": "_newOwner",
          "type": "address"
        }
      ],
      "name": "transferOwnership",
      "outputs": [],
      "payable": false,
      "stateMutability": "nonpayable",
      "type": "function"
    },
    {
      "inputs": [],
      "payable": false,
      "stateMutability": "nonpayable",
      "type": "constructor"
    },
    {
      "anonymous": false,
      "inputs": [
        {
          "indexed": false,
          "name": "flightId",
          "type": "bytes32"
        },
        {
          "indexed": false,
          "name": "seatNumber",
          "type": "bytes4"
        },
        {
          "indexed": false,
          "name": "seatId",
          "type": "uint256"
        }
      ],
      "name": "SeatCreatedEvent",
      "type": "event"
    },
    {
      "anonymous": false,
      "inputs": [
        {
          "indexed": true,
          "name": "seatOwner",
          "type": "address"
        },
        {
          "indexed": true,
          "name": "seatId",
          "type": "uint256"
        },
        {
          "indexed": false,
          "name": "flightNumber",
          "type": "bytes8"
        },
        {
          "indexed": false,
          "name": "departureDateTime",
          "type": "uint256"
        },
        {
          "indexed": false,
          "name": "origin",
          "type": "bytes3"
        },
        {
          "indexed": false,
          "name": "destination",
          "type": "bytes3"
        },
        {
          "indexed": false,
          "name": "seatNumber",
          "type": "bytes4"
        }
      ],
      "name": "SeatBookedEvent",
      "type": "event"
    },
    {
      "anonymous": false,
      "inputs": [
        {
          "indexed": true,
          "name": "boardingPassId",
          "type": "uint256"
        },
        {
          "indexed": true,
          "name": "boardingPassOwner",
          "type": "address"
        },
        {
          "indexed": true,
          "name": "seatId",
          "type": "uint256"
        },
        {
          "indexed": false,
          "name": "passportScanIpfsHash",
          "type": "bytes"
        },
        {
          "indexed": false,
          "name": "flightNumber",
          "type": "bytes8"
        },
        {
          "indexed": false,
          "name": "departureDateTime",
          "type": "uint256"
        },
        {
          "indexed": false,
          "name": "origin",
          "type": "bytes3"
        },
        {
          "indexed": false,
          "name": "destination",
          "type": "bytes3"
        },
        {
          "indexed": false,
          "name": "seatNumber",
          "type": "bytes4"
        }
      ],
      "name": "BoardingPassGeneratedEvent",
      "type": "event"
    },
    {
      "anonymous": false,
      "inputs": [
        {
          "indexed": true,
          "name": "airline",
          "type": "address"
        },
        {
          "indexed": false,
          "name": "weiAmount",
          "type": "uint256"
        }
      ],
      "name": "FlightFeeDeposited",
      "type": "event"
    },
    {
      "anonymous": false,
      "inputs": [
        {
          "indexed": true,
          "name": "airline",
          "type": "address"
        },
        {
          "indexed": false,
          "name": "weiAmount",
          "type": "uint256"
        }
      ],
      "name": "FlightFeesWithdrawn",
      "type": "event"
    },
    {
      "anonymous": false,
      "inputs": [
        {
          "indexed": true,
          "name": "airline",
          "type": "address"
        },
        {
          "indexed": true,
          "name": "recipient",
          "type": "address"
        },
        {
          "indexed": false,
          "name": "weiAmount",
          "type": "uint256"
        }
      ],
      "name": "RefundProcessedEvent",
      "type": "event"
    },
    {
      "anonymous": false,
      "inputs": [],
      "name": "Pause",
      "type": "event"
    },
    {
      "anonymous": false,
      "inputs": [],
      "name": "Unpause",
      "type": "event"
    },
    {
      "anonymous": false,
      "inputs": [
        {
          "indexed": true,
          "name": "previousOwner",
          "type": "address"
        }
      ],
      "name": "OwnershipRenounced",
      "type": "event"
    },
    {
      "anonymous": false,
      "inputs": [
        {
          "indexed": true,
          "name": "previousOwner",
          "type": "address"
        },
        {
          "indexed": true,
          "name": "newOwner",
          "type": "address"
        }
      ],
      "name": "OwnershipTransferred",
      "type": "event"
    },
    {
      "anonymous": false,
      "inputs": [
        {
          "indexed": true,
          "name": "_from",
          "type": "address"
        },
        {
          "indexed": true,
          "name": "_to",
          "type": "address"
        },
        {
          "indexed": true,
          "name": "_tokenId",
          "type": "uint256"
        }
      ],
      "name": "Transfer",
      "type": "event"
    },
    {
      "anonymous": false,
      "inputs": [
        {
          "indexed": true,
          "name": "_owner",
          "type": "address"
        },
        {
          "indexed": true,
          "name": "_approved",
          "type": "address"
        },
        {
          "indexed": true,
          "name": "_tokenId",
          "type": "uint256"
        }
      ],
      "name": "Approval",
      "type": "event"
    },
    {
      "anonymous": false,
      "inputs": [
        {
          "indexed": true,
          "name": "_owner",
          "type": "address"
        },
        {
          "indexed": true,
          "name": "_operator",
          "type": "address"
        },
        {
          "indexed": false,
          "name": "_approved",
          "type": "bool"
        }
      ],
      "name": "ApprovalForAll",
      "type": "event"
    },
    {
      "constant": true,
      "inputs": [],
      "name": "getActiveAirlines",
      "outputs": [
        {
          "name": "",
          "type": "address[]"
        }
      ],
      "payable": false,
      "stateMutability": "view",
      "type": "function"
    },
    {
      "constant": true,
      "inputs": [
        {
          "name": "_flightNumber",
          "type": "bytes8"
        },
        {
          "name": "_departureDateTime",
          "type": "uint256"
        }
      ],
      "name": "getFlightId",
      "outputs": [
        {
          "name": "",
          "type": "bytes32"
        }
      ],
      "payable": false,
      "stateMutability": "pure",
      "type": "function"
    },
    {
      "constant": true,
      "inputs": [
        {
          "name": "_flightNumber",
          "type": "bytes8"
        },
        {
          "name": "_departureDateTime",
          "type": "uint256"
        },
        {
          "name": "_seatNumber",
          "type": "bytes4"
        }
      ],
      "name": "getSeatId",
      "outputs": [
        {
          "name": "",
          "type": "uint256"
        }
      ],
      "payable": false,
      "stateMutability": "pure",
      "type": "function"
    },
    {
      "constant": true,
      "inputs": [
        {
          "name": "_airlineAddress",
          "type": "address"
        }
      ],
      "name": "getFlightIdsForAirline",
      "outputs": [
        {
          "name": "",
          "type": "bytes32[]"
        }
      ],
      "payable": false,
      "stateMutability": "view",
      "type": "function"
    },
    {
      "constant": true,
      "inputs": [
        {
          "name": "_flightId",
          "type": "bytes32"
        }
      ],
      "name": "getFlight",
      "outputs": [
        {
          "name": "",
          "type": "bytes32"
        },
        {
          "name": "",
          "type": "bytes8"
        },
        {
          "name": "",
          "type": "bytes3"
        },
        {
          "name": "",
          "type": "bytes3"
        },
        {
          "name": "",
          "type": "string"
        },
        {
          "name": "",
          "type": "uint256"
        },
        {
          "name": "",
          "type": "bytes2"
        }
      ],
      "payable": false,
      "stateMutability": "view",
      "type": "function"
    },
    {
      "constant": true,
      "inputs": [
        {
          "name": "_seatId",
          "type": "uint256"
        }
      ],
      "name": "getSeat",
      "outputs": [
        {
          "name": "",
          "type": "uint256"
        },
        {
          "name": "",
          "type": "bytes4"
        },
        {
          "name": "",
          "type": "uint256"
        },
        {
          "name": "",
          "type": "uint8"
        },
        {
          "name": "",
          "type": "uint8"
        },
        {
          "name": "",
          "type": "bool"
        },
        {
          "name": "",
          "type": "bool"
        }
      ],
      "payable": false,
      "stateMutability": "view",
      "type": "function"
    },
    {
      "constant": true,
      "inputs": [
        {
          "name": "_flightId",
          "type": "bytes32"
        }
      ],
      "name": "getSeatsForFlight",
      "outputs": [
        {
          "name": "",
          "type": "uint256[]"
        }
      ],
      "payable": false,
      "stateMutability": "view",
      "type": "function"
    },
    {
      "constant": true,
      "inputs": [
        {
          "name": "_seatId",
          "type": "uint256"
        }
      ],
      "name": "getBoardingPassForSeat",
      "outputs": [
        {
          "name": "",
          "type": "uint256"
        },
        {
          "name": "",
          "type": "uint256"
        },
        {
          "name": "",
          "type": "bytes32"
        },
        {
          "name": "",
          "type": "bytes"
        }
      ],
      "payable": false,
      "stateMutability": "view",
      "type": "function"
    },
    {
      "constant": false,
      "inputs": [
        {
          "name": "_flightNumber",
          "type": "bytes8"
        },
        {
          "name": "_origin",
          "type": "bytes3"
        },
        {
          "name": "_destination",
          "type": "bytes3"
        },
        {
          "name": "_departureDateTime",
          "type": "uint256"
        },
        {
          "name": "_airlineCode",
          "type": "bytes2"
        },
        {
          "name": "_airlineName",
          "type": "string"
        },
        {
          "name": "_totalNumberSeats",
          "type": "uint256"
        },
        {
          "name": "_airlineAddress",
          "type": "address"
        },
        {
          "name": "_signature",
          "type": "bytes"
        },
        {
          "name": "_nonce",
          "type": "uint256"
        }
      ],
      "name": "createFlight",
      "outputs": [
        {
          "name": "",
          "type": "bytes32"
        }
      ],
      "payable": false,
      "stateMutability": "nonpayable",
      "type": "function"
    },
    {
      "constant": false,
      "inputs": [
        {
          "name": "_flightNumber",
          "type": "bytes8"
        },
        {
          "name": "_departureDateTime",
          "type": "uint256"
        },
        {
          "name": "_seatNumbers",
          "type": "bytes4[]"
        },
        {
          "name": "_seatPrices",
          "type": "uint256[]"
        },
        {
          "name": "_cabin",
          "type": "uint8"
        }
      ],
      "name": "addSeatInventoryToFlightCabin",
      "outputs": [],
      "payable": false,
      "stateMutability": "nonpayable",
      "type": "function"
    },
    {
      "constant": false,
      "inputs": [
        {
          "name": "_seatId",
          "type": "uint256"
        }
      ],
      "name": "bookSeat",
      "outputs": [
        {
          "name": "",
          "type": "uint256"
        }
      ],
      "payable": true,
      "stateMutability": "payable",
      "type": "function"
    },
    {
      "constant": false,
      "inputs": [
        {
          "name": "_airline",
          "type": "address"
        }
      ],
      "name": "withdrawFlightFees",
      "outputs": [],
      "payable": false,
      "stateMutability": "nonpayable",
      "type": "function"
    },
    {
      "constant": false,
      "inputs": [
        {
          "name": "_seatId",
          "type": "uint256"
        },
        {
          "name": "_barcodeString",
          "type": "bytes32"
        },
        {
          "name": "_passportScanIpfsHash",
          "type": "bytes"
        }
      ],
      "name": "checkinPassenger",
      "outputs": [
        {
          "name": "",
          "type": "uint256"
        }
      ],
      "payable": false,
      "stateMutability": "nonpayable",
      "type": "function"
    },
    {
      "constant": true,
      "inputs": [
        {
          "name": "_seatId",
          "type": "uint256"
        }
      ],
      "name": "getBarcodeStringParametersForBoardingPass",
      "outputs": [
        {
          "name": "",
          "type": "bytes8"
        },
        {
          "name": "",
          "type": "bytes3"
        },
        {
          "name": "",
          "type": "bytes3"
        },
        {
          "name": "",
          "type": "uint256"
        },
        {
          "name": "",
          "type": "bytes4"
        }
      ],
      "payable": false,
      "stateMutability": "view",
      "type": "function"
    },
    {
      "constant": false,
      "inputs": [
        {
          "name": "_seatId",
          "type": "uint256"
        }
      ],
      "name": "cancelSeatBooking",
      "outputs": [
        {
          "name": "",
          "type": "uint256"
        }
      ],
      "payable": false,
      "stateMutability": "nonpayable",
      "type": "function"
    },
    {
      "constant": false,
      "inputs": [
        {
          "name": "_amountToRefund",
          "type": "uint256"
        },
        {
          "name": "_nonce",
          "type": "uint256"
        },
        {
          "name": "_airlineSig",
          "type": "bytes"
        }
      ],
      "name": "processAirlineRefunds",
      "outputs": [],
      "payable": true,
      "stateMutability": "payable",
      "type": "function"
    },
    {
      "constant": false,
      "inputs": [],
      "name": "kill",
      "outputs": [],
      "payable": false,
      "stateMutability": "nonpayable",
      "type": "function"
    }
  ],
  "bytecode": "0x6080604052600c805460a060020a60ff02191690553480156200002157600080fd5b506060806040805190810160405280601781526020017f466c696768742053656174204469737472696275746f720000000000000000008152506040805190810160405280600b81526020017f464c494748542d53454154000000000000000000000000000000000000000000815250620000ce6301ffc9a77c010000000000000000000000000000000000000000000000000000000002620006fd640100000000026401000000009004565b620001027f80ac58cd00000000000000000000000000000000000000000000000000000000640100000000620006fd810204565b620001367f4f558e7900000000000000000000000000000000000000000000000000000000640100000000620006fd810204565b81516200014b906005906020850190620014af565b50805162000161906006906020840190620014af565b50620001967f780e9d6300000000000000000000000000000000000000000000000000000000640100000000620006fd810204565b620001ca7f5b5e139f00000000000000000000000000000000000000000000000000000000640100000000620006fd810204565b5050600c8054600160a060020a031916331790819055604080518082018252600f81527f4272697469736820416972776179730000000000000000000000000000000000602080830191909152825160008152908101909252620002d9927f4241313235000000000000000000000000000000000000000000000000000000927f4c48520000000000000000000000000000000000000000000000000000000000927f4a464b000000000000000000000000000000000000000000000000000000000092635c03866d927f42410000000000000000000000000000000000000000000000000000000000009291600691600160a060020a03919091169061022b6401000000006200076a810204565b5060408051600280825260608201835290916020830190803883395050604080516002808252606082018352939550929150602083019080388339505083519192507f31410000000000000000000000000000000000000000000000000000000000009184915060009081106200034c57fe5b7fffffffff0000000000000000000000000000000000000000000000000000000090921660209283029091019091015281517f31420000000000000000000000000000000000000000000000000000000000009083906001908110620003ae57fe5b7fffffffff000000000000000000000000000000000000000000000000000000009092166020928302909101909101528051678ac7230489e800009082906000908110620003f857fe5b602090810290910101528051677ce66c50e284000090829060019081106200041c57fe5b60209081029091010152620004637f4241313235000000000000000000000000000000000000000000000000000000635c03866d8484600264010000000062000c6b810204565b81517f324100000000000000000000000000000000000000000000000000000000000090839060009081106200049557fe5b7fffffffff0000000000000000000000000000000000000000000000000000000090921660209283029091019091015281517f32420000000000000000000000000000000000000000000000000000000000009083906001908110620004f757fe5b7fffffffff0000000000000000000000000000000000000000000000000000000090921660209283029091019091015280516753444835ec58000090829060009081106200054157fe5b602090810290910101528051674563918244f4000090829060019081106200056557fe5b60209081029091010152620005ac7f4241313235000000000000000000000000000000000000000000000000000000635c03866d8484600164010000000062000c6b810204565b81517f33410000000000000000000000000000000000000000000000000000000000009083906000908110620005de57fe5b7fffffffff0000000000000000000000000000000000000000000000000000000090921660209283029091019091015281517f334200000000000000000000000000000000000000000000000000000000000090839060019081106200064057fe5b7fffffffff0000000000000000000000000000000000000000000000000000000090921660209283029091019091015280516729a2241af62c000090829060009081106200068a57fe5b602090810290910101528051671bc16d674ec800009082906001908110620006ae57fe5b60209081029091010152620006f57f4241313235000000000000000000000000000000000000000000000000000000635c03866d8484600064010000000062000c6b810204565b5050620015f0565b7fffffffff0000000000000000000000000000000000000000000000000000000080821614156200072d57600080fd5b7fffffffff00000000000000000000000000000000000000000000000000000000166000908152602081905260409020805460ff19166001179055565b60008060006200077962001534565b600c5474010000000000000000000000000000000000000000900460ff1615620007a257600080fd5b60008581526014602052604090205460ff1615620007bf57600080fd5b620007d48e8c64010000000062000f4c810204565b6040805160208082018490526c01000000000000000000000000600160a060020a038c16028284015260548083018a9052835180840390910181526074909201928390528151939650620008919391929182918401908083835b602083106200084f5780518252601f1990920191602091820191016200082e565b5181516020939093036101000a6000190180199091169216919091179052604051920182900390912092505064010000000062001009810262003a6f17049050565b600c54909250600160a060020a031633146200094157600160a060020a038716620008cb838864010000000062003b19620010b582021704565b600160a060020a0316146200094157604080517f08c379a000000000000000000000000000000000000000000000000000000000815260206004820152601160248201527f496e76616c6964207369676e6174757265000000000000000000000000000000604482015290519081900360640190fd5b428b11620009b057604080517f08c379a000000000000000000000000000000000000000000000000000000000815260206004820152601360248201527f466c696768742068617320646570617274656400000000000000000000000000604482015290519081900360640190fd5b6060604051908101604052808b600160f060020a03191681526020018a815260200188600160a060020a0316815250905061010060405190810160405280846000191681526020018f600160c060020a03191681526020018e600160e860020a03191681526020018d600160e860020a03191681526020018281526020018c8152602001898152602001600060405190808252806020026020018201604052801562000a66578160200160208202803883390190505b5090526000848152600f6020908152604091829020835181558382015160018201805494860151606087015167ffffffffffffffff19909616780100000000000000000000000000000000000000000000000090930492909217604060020a62ffffff021916680100000000000000007d010000000000000000000000000000000000000000000000000000000000938490040217605860020a62ffffff0219166b0100000000000000000000009290950491909102939093179092556080830151805160028401805461ffff19167e010000000000000000000000000000000000000000000000000000000000009092049190911781558183015180519293919262000b7a9260038701920190620014af565b506040919091015160029091018054600160a060020a031916600160a060020a0390921691909117905560a0820151600582015560c0820151600682015560e0820151805162000bd591600784019160209091019062001556565b5050600d805460018082019092557fd7b6990105719101dabeb77144f2a3385c8033acd3af97e9423a695e81ad1eb5018054600160a060020a031916600160a060020a039a909a16998a1790556000988952600e60209081526040808b2080548085018255908c52828c2001879055978a526014905295909720805460ff1916909517909455509b9a5050505050505050505050565b60008086863362000c86838364010000000062001191810204565b600160a060020a03161462000cfc57604080517f08c379a000000000000000000000000000000000000000000000000000000000815260206004820152601d60248201527f4d757374206265206169726c696e65206f662074686520666c69676874000000604482015290519081900360640190fd5b600c5474010000000000000000000000000000000000000000900460ff161562000d2557600080fd5b62000d3a898964010000000062000f4c810204565b6000818152600f602052604090206006810154600790910154895192965091909101111562000e1657604080517f08c379a000000000000000000000000000000000000000000000000000000000815260206004820152604360248201527f796f752063616e6e6f7420616464206d6f7265207365617473207468616e207460448201527f686520746f74616c206e756d626572206f6620736561747320666f7220666c6960648201527f6768740000000000000000000000000000000000000000000000000000000000608482015290519081900360a40190fd5b855187511462000ead57604080517f08c379a000000000000000000000000000000000000000000000000000000000815260206004820152603f60248201527f796f75206d75737420737570706c79206120636f72726573706f6e64696e672060448201527f7365617420707269636520666f7220656163682073656174206e756d62657200606482015290519081900360840190fd5b600092505b865183101562000f41576000848152600f60205260409020875160079091019062000f21908b908b908b908890811062000ee857fe5b906020019060200201518a8881518110151562000f0157fe5b906020019060200201518a620011cf640100000000026401000000009004565b815460018181018455600093845260209093200155929092019162000eb2565b505050505050505050565b60408051600160c060020a031984166020808301919091527f5f0000000000000000000000000000000000000000000000000000000000000060288301526029808301859052835180840390910181526049909201928390528151600093918291908401908083835b6020831062000fd65780518252601f19909201916020918201910162000fb5565b5181516020939093036101000a600019018019909116921691909117905260405192018290039091209695505050505050565b604080517f19457468657265756d205369676e6564204d6573736167653a0a333200000000602080830191909152603c80830185905283518084039091018152605c909201928390528151600093918291908401908083835b60208310620010835780518252601f19909201916020918201910162001062565b5181516020939093036101000a6000190180199091169216919091179052604051920182900390912095945050505050565b60008060008084516041141515620010d1576000935062001188565b50505060208201516040830151606084015160001a601b60ff82161015620010f757601b015b8060ff16601b141580156200111057508060ff16601c14155b1562001120576000935062001188565b60408051600080825260208083018085528a905260ff8516838501526060830187905260808301869052925160019360a0808501949193601f19840193928390039091019190865af11580156200117b573d6000803e3d6000fd5b5050506020604051035193505b50505092915050565b6000600f81620011ab858564010000000062000f4c810204565b8152602081019190915260400160002060040154600160a060020a03169392505050565b600080620011dc62001593565b620011f2888888640100000000620013c3810204565b6040805160e0810182527fffffffff0000000000000000000000000000000000000000000000000000000089168152602081018890529193508101600081526020018560028111156200124157fe5b81526020016200125b8a8a64010000000062000f4c810204565b8152600060208083018290526001604093840181905286835260108252918390208451815463ffffffff19167c010000000000000000000000000000000000000000000000000000000090910417815590840151818301559183015160028301805494955085949192909160ff1916908381811115620012d757fe5b021790555060608201518160020160016101000a81548160ff021916908360028111156200130157fe5b02179055506080820151600382015560a08201516004909101805460c09093015115156101000261ff001992151560ff1990941693909317919091169190911790557f21a8d89e1f3c6e3eaa19284633750b71cf1081477114f3e2a30d8052f74b9db062001379898964010000000062000f4c810204565b604080519182527fffffffff0000000000000000000000000000000000000000000000000000000089166020830152818101859052519081900360600190a1509695505050505050565b60408051600160c060020a031985166020808301919091527f5f00000000000000000000000000000000000000000000000000000000000000602883018190526029830186905260498301527fffffffff000000000000000000000000000000000000000000000000000000008416604a8301528251602e818403018152604e909201928390528151600093918291908401908083835b602083106200147b5780518252601f1990920191602091820191016200145a565b5181516020939093036101000a60001901801990911692169190911790526040519201829003909120979650505050505050565b828054600181600116156101000203166002900490600052602060002090601f016020900481019282601f10620014f257805160ff191683800117855562001522565b8280016001018555821562001522579182015b828111156200152257825182559160200191906001019062001505565b5062001530929150620015d0565b5090565b6040805160608181018352600080835260208301919091529181019190915290565b8280548282559060005260206000209081019282156200152257916020028201828111156200152257825182559160200191906001019062001505565b6040805160e08101825260008082526020820181905290918201908152602001600081526000602082018190526040820181905260609091015290565b620015ed91905b80821115620015305760008155600101620015d7565b90565b61452980620016006000396000f3006080604052600436106101ea5763ffffffff60e060020a60003504166301ffc9a781146101ef57806306fdde0314610225578063081812fc146102af578063095ea7b3146102e357806317b58e8c1461030957806318160ddd1461038c57806319fa8f50146103b357806323b872dd146103e55780632f745c591461040f5780633f4ba83a146104335780633fbc5e021461044857806341c0e1b5146104a857806342842e0e146104bd57806344f37dc4146104e75780634ec93d501461054f5780634f558e79146105675780634f6ccce71461057f5780635c975abb14610597578063615ea74c146105ac5780636352211e146106595780636dc4c03c1461067157806370a0823114610692578063715018a6146106b35780637cf1ae77146106c85780638456cb59146107c557806384e9f7c9146107da5780638da5cb5b146107e557806395d89b41146107fa578063962610981461080f5780639830374c146108275780639a40e9c214610848578063a22cb465146108ac578063b88d4fde146108d2578063b9443eca14610941578063c87b56dd14610973578063cac8f2921461098b578063e985e9c514610a88578063f19a341814610aaf578063f2fde38b14610ad4578063f4366de914610af5578063f5818b3c14610b48578063fd4d02a414610bee575b600080fd5b3480156101fb57600080fd5b50610211600160e060020a031960043516610c03565b604080519115158252519081900360200190f35b34801561023157600080fd5b5061023a610c22565b6040805160208082528351818301528351919283929083019185019080838360005b8381101561027457818101518382015260200161025c565b50505050905090810190601f1680156102a15780820380516001836020036101000a031916815260200191505b509250505060405180910390f35b3480156102bb57600080fd5b506102c7600435610cb9565b60408051600160a060020a039092168252519081900360200190f35b3480156102ef57600080fd5b50610307600160a060020a0360043516602435610cd4565b005b34801561031557600080fd5b50610321600435610d7d565b60408051888152600160e060020a0319881660208201529081018690526060810185600181111561034e57fe5b60ff16815260200184600281111561036257fe5b60ff1681529215156020840152501515604080830191909152519081900360600195509350505050f35b34801561039857600080fd5b506103a1610dc6565b60408051918252519081900360200190f35b3480156103bf57600080fd5b506103c8610dcc565b60408051600160e060020a03199092168252519081900360200190f35b3480156103f157600080fd5b50610307600160a060020a0360043581169060243516604435610df0565b34801561041b57600080fd5b506103a1600160a060020a0360043516602435610e95565b34801561043f57600080fd5b50610307610ee2565b34801561045457600080fd5b50604080516020600460443581810135601f81018490048402850184019095528484526103a1948235946024803595369594606494920191908190840183828082843750949750610f5a9650505050505050565b3480156104b457600080fd5b506103076113cc565b3480156104c957600080fd5b50610307600160a060020a03600435811690602435166044356113ef565b3480156104f357600080fd5b506104ff600435611427565b60408051602080825283518183015283519192839290830191858101910280838360005b8381101561053b578181015183820152602001610523565b505050509050019250505060405180910390f35b34801561055b57600080fd5b506103a160043561148c565b34801561057357600080fd5b50610211600435611856565b34801561058b57600080fd5b506103a1600435611873565b3480156105a357600080fd5b506102116118a8565b3480156105b857600080fd5b506105c46004356118b8565b60405180858152602001848152602001836000191660001916815260200180602001828103825283818151815260200191508051906020019080838360005b8381101561061b578181015183820152602001610603565b50505050905090810190601f1680156106485780820380516001836020036101000a031916815260200191505b509550505050505060405180910390f35b34801561066557600080fd5b506102c7600435611978565b34801561067d57600080fd5b506104ff600160a060020a03600435166119a2565b34801561069e57600080fd5b506103a1600160a060020a0360043516611a0e565b3480156106bf57600080fd5b50610307611a41565b3480156106d457600080fd5b50604080516020600460a43581810135601f81018490048402850184019095528484526103a1948235600160c060020a0319169460248035600160e860020a03199081169660443590911695606435956084357fffff00000000000000000000000000000000000000000000000000000000000016953695929460c494920191819084018382808284375050604080516020888301358a018035601f8101839004830284018301909452838352979a89359a8a830135600160a060020a03169a919990985060609091019650919450908101925081908401838280828437509497505093359450611aa29350505050565b3480156107d157600080fd5b50610307611f57565b6103a1600435611fd4565b3480156107f157600080fd5b506102c76123c5565b34801561080657600080fd5b5061023a6123d4565b34801561081b57600080fd5b506102c7600435612435565b34801561083357600080fd5b50610307600160a060020a036004351661245d565b34801561085457600080fd5b50610860600435612592565b60408051600160c060020a03199096168652600160e860020a0319948516602087015292909316848301526060840152600160e060020a03199091166080830152519081900360a00190f35b3480156108b857600080fd5b50610307600160a060020a036004351660243515156125e5565b3480156108de57600080fd5b50604080516020601f60643560048181013592830184900484028501840190955281845261030794600160a060020a0381358116956024803590921695604435953695608494019181908401838280828437509497506126699650505050505050565b34801561094d57600080fd5b506103a1600160c060020a031960043516602435600160e060020a0319604435166126a8565b34801561097f57600080fd5b5061023a60043561277a565b34801561099757600080fd5b506109a3600435612825565b60408051888152600160c060020a03198816602080830191909152600160e860020a031980891693830193909352918616606082015260a081018490527fffff000000000000000000000000000000000000000000000000000000000000831660c082015260e06080820181815286519183019190915285519192909161010084019187019080838360005b83811015610a47578181015183820152602001610a2f565b50505050905090810190601f168015610a745780820380516001836020036101000a031916815260200191505b509850505050505050505060405180910390f35b348015610a9457600080fd5b50610211600160a060020a036004358116906024351661294d565b348015610abb57600080fd5b506103a1600160c060020a03196004351660243561297b565b348015610ae057600080fd5b50610307600160a060020a0360043516612a36565b604080516020600460443581810135601f8101849004840285018401909552848452610307948235946024803595369594606494920191908190840183828082843750949750612a599650505050505050565b348015610b5457600080fd5b506040805160206004604435818101358381028086018501909652808552610307958335600160c060020a031916956024803596369695606495939492019291829185019084908082843750506040805187358901803560208181028481018201909552818452989b9a9989019892975090820195509350839250850190849080828437509497505050923560ff169350612fe592505050565b348015610bfa57600080fd5b506104ff613236565b600160e060020a03191660009081526020819052604090205460ff1690565b60058054604080516020601f6002600019610100600188161502019095169490940493840181900481028201810190925282815260609390929091830182828015610cae5780601f10610c8357610100808354040283529160200191610cae565b820191906000526020600020905b815481529060010190602001808311610c9157829003601f168201915b505050505090505b90565b600090815260026020526040902054600160a060020a031690565b6000610cdf82611978565b9050600160a060020a038381169082161415610cfa57600080fd5b33600160a060020a0382161480610d165750610d16813361294d565b1515610d2157600080fd5b6000828152600260205260408082208054600160a060020a031916600160a060020a0387811691821790925591518593918516917f8c5be1e5ebec7d5bd14f71427d1e84f3dd0314c0f7b2291e5b200ac8c7c3b92591a4505050565b6000818152601060205260409020805460018201546002830154600490930154939460e060020a90920293909260ff808216936101009283900482169382811693900490911690565b60095490565b7f01ffc9a70000000000000000000000000000000000000000000000000000000081565b80610dfb3382613297565b1515610e0657600080fd5b600160a060020a0384161515610e1b57600080fd5b600160a060020a0383161515610e3057600080fd5b610e3a84836132f6565b610e44848361335a565b610e4e8383613493565b8183600160a060020a031685600160a060020a03167fddf252ad1be2c89b69c2b068fc378daa952ba7f163c4a11628f55a4df523b3ef60405160405180910390a450505050565b6000610ea083611a0e565b8210610eab57600080fd5b600160a060020a0383166000908152600760205260409020805483908110610ecf57fe5b9060005260206000200154905092915050565b600c54600160a060020a03163314610ef957600080fd5b600c5460a060020a900460ff161515610f1157600080fd5b600c805474ff0000000000000000000000000000000000000000191690556040517f7805862f689e2f13df9f062ff482ad3ad112aca9e0847911ed832e158c525b3390600090a1565b6000610f6461426f565b6000610f6e6142bb565b8633610f7982611978565b600160a060020a031614610ffd576040805160e560020a62461bcd02815260206004820152602360248201527f4d7573742062652070617373656e6765722077686f206f776e7320746865207360448201527f6561740000000000000000000000000000000000000000000000000000000000606482015290519081900360840190fd5b600c5460a060020a900460ff161561101457600080fd5b61101d88611856565b1515611098576040805160e560020a62461bcd028152602060048201526024808201527f53656174206d75737420657869737420696e206f7264657220746f206368656360448201527f6b20696e00000000000000000000000000000000000000000000000000000000606482015290519081900360840190fd5b6110a1886134dc565b60008981526010602052604090206004015490945060ff161561110e576040805160e560020a62461bcd02815260206004820152601a60248201527f5365617420697320616c726561647920636865636b656420696e000000000000604482015290519081900360640190fd5b60a0840151421061118f576040805160e560020a62461bcd02815260206004820152602960248201527f546f6f206c61746520746f20636865636b20696e2c20666c696768742068617360448201527f2064657061727465640000000000000000000000000000000000000000000000606482015290519081900360840190fd5b600160008981526010602052604090206002015460ff1660018111156111b157fe5b14611206576040805160e560020a62461bcd02815260206004820152601560248201527f53656174206d757374206265206f636375706965640000000000000000000000604482015290519081900360640190fd5b600088815260106020908152604091829020600401805460ff1916600117905581518082018a81527f5f000000000000000000000000000000000000000000000000000000000000009382019390935288518a938a93909260410191908401908083835b602083106112895780518252601f19909201916020918201910161126a565b6001836020036101000a038019825116818451168082178552505050505050905001925050506040516020818303038152906040526040518082805190602001908083835b602083106112ed5780518252601f1990920191602091820191016112ce565b6001836020036101000a038019825116818451168082178552505050505050905001915050604051809103902060019004925061132a33896136e0565b61133433846137da565b6113468361134189613829565b6138e7565b61135884608001516040015184610cd4565b6040805160808101825284815260208082018b81528284018b8152606084018b815260008e815260118552959095208451815591516001830155516002820155925180519295508593926113b292600385019201906142e1565b509050506113c0828561391f565b50909695505050505050565b600c54600160a060020a03163314156113ed57600c54600160a060020a0316ff5b565b806113fa3382613297565b151561140557600080fd5b6114218484846020604051908101604052806000815250612669565b50505050565b6000818152600f602090815260409182902060070180548351818402810184019094528084526060939283018282801561148057602002820191906000526020600020905b81548152602001906001019080831161146c575b50505050509050919050565b600080600061149961435f565b84336114a482613a41565b600160a060020a031614806114c95750336114be82611978565b600160a060020a0316145b1515611545576040805160e560020a62461bcd02815260206004820152602e60248201527f4d757374206265206169726c696e65206f722070617373656e6765722077686f60448201527f206f776e73207468652073656174000000000000000000000000000000000000606482015290519081900360840190fd5b600c5460a060020a900460ff161561155c57600080fd5b61156586611856565b15156115e1576040805160e560020a62461bcd02815260206004820152602f60248201527f53656174206d75737420657869737420696e206f7264657220746f2063616e6360448201527f656c207365617420626f6f6b696e670000000000000000000000000000000000606482015290519081900360840190fd5b600160008781526010602052604090206002015460ff16600181111561160357fe5b14611658576040805160e560020a62461bcd02815260206004820152601560248201527f53656174206d757374206265206f636375706965640000000000000000000000604482015290519081900360640190fd5b60008681526010602052604090206004015460ff16156116e8576040805160e560020a62461bcd02815260206004820152603660248201527f596f752063616e6e6f742063616e63656c206120626f6f6b696e67206166746560448201527f7220636865636b696e20697320636f6d706c6574656400000000000000000000606482015290519081900360840190fd5b6000868152601060205260409020600201805460ff1916905561170a86613a41565b935061171586611978565b9250600160a060020a0380841690851614156117a1576040805160e560020a62461bcd02815260206004820152602481018290527f7468697320736561742068617320616c7265616479206265656e2063616e636560448201527f6c6c656420616e642072657475726e656420746f20746865206169726c696e65606482015290519081900360840190fd5b60408051606081018252600160a060020a038516815260008881526010602090815283822060010154908301529181019190915291506117e28385886113ef565b50600160a060020a0392831660009081526012602090815260408083208054600180820183559185529383902085516003909502018054600160a060020a03191694909716939093178655908301519185019190915501516002909201805460ff1916921515929092179091555090919050565b600090815260016020526040902054600160a060020a0316151590565b600061187d610dc6565b821061188857600080fd5b600980548390811061189657fe5b90600052602060002001549050919050565b600c5460a060020a900460ff1681565b600081815260116020908152604080832080546001808301546002808501546003909501805487519481161561010002600019011691909104601f8101889004880284018801909652858352879687966060969394918391908301828280156119625780601f1061193757610100808354040283529160200191611962565b820191906000526020600020905b81548152906001019060200180831161194557829003601f168201915b5050505050905093509350935093509193509193565b600081815260016020526040812054600160a060020a031680151561199c57600080fd5b92915050565b600160a060020a0381166000908152600e602090815260409182902080548351818402810184019094528084526060939283018282801561148057602002820191906000526020600020905b815481526001909101906020018083116119ee5750505050509050919050565b6000600160a060020a0382161515611a2557600080fd5b50600160a060020a031660009081526003602052604090205490565b600c54600160a060020a03163314611a5857600080fd5b600c54604051600160a060020a03909116907ff8df31144d9c2f0f6b59d69b8b98abd5459d07f2742c4df920b25aae33c6482090600090a2600c8054600160a060020a0319169055565b6000806000611aaf61437f565b600c5460a060020a900460ff1615611ac657600080fd5b60008581526014602052604090205460ff1615611ae257600080fd5b611aec8e8c61297b565b6040805160208082018490526c01000000000000000000000000600160a060020a038c16028284015260548083018a9052835180840390910181526074909201928390528151939650611b979391929182918401908083835b60208310611b645780518252601f199092019160209182019101611b45565b5181516020939093036101000a600019018019909116921691909117905260405192018290039091209250613a6f915050565b600c54909250600160a060020a03163314611c2457600160a060020a038716611bc6838863ffffffff613b1916565b600160a060020a031614611c24576040805160e560020a62461bcd02815260206004820152601160248201527f496e76616c6964207369676e6174757265000000000000000000000000000000604482015290519081900360640190fd5b428b11611c7b576040805160e560020a62461bcd02815260206004820152601360248201527f466c696768742068617320646570617274656400000000000000000000000000604482015290519081900360640190fd5b6060604051908101604052808b7dffffffffffffffffffffffffffffffffffffffffffffffffffffffffffff191681526020018a815260200188600160a060020a0316815250905061010060405190810160405280846000191681526020018f77ffffffffffffffffffffffffffffffffffffffffffffffff191681526020018e7cffffffffffffffffffffffffffffffffffffffffffffffffffffffffff191681526020018d7cffffffffffffffffffffffffffffffffffffffffffffffffffffffffff191681526020018281526020018c81526020018981526020016000604051908082528060200260200182016040528015611d84578160200160208202803883390190505b5090526000848152600f6020908152604091829020835181558382015160018201805494860151606087015167ffffffffffffffff199096167801000000000000000000000000000000000000000000000000909304929092176affffff000000000000000019166801000000000000000060e860020a9384900402176dffffff000000000000000000000019166b0100000000000000000000009290950491909102939093179092556080830151805160028401805461ffff191660f060020a90920491909117815581830151805192939192611e6892600387019201906142e1565b506040919091015160029091018054600160a060020a031916600160a060020a0390921691909117905560a0820151600582015560c0820151600682015560e08201518051611ec19160078401916020909101906143a1565b5050600d805460018082019092557fd7b6990105719101dabeb77144f2a3385c8033acd3af97e9423a695e81ad1eb5018054600160a060020a031916600160a060020a039a909a16998a1790556000988952600e60209081526040808b2080548085018255908c52828c2001879055978a526014905295909720805460ff1916909517909455509b9a5050505050505050505050565b600c54600160a060020a03163314611f6e57600080fd5b600c5460a060020a900460ff1615611f8557600080fd5b600c805474ff0000000000000000000000000000000000000000191660a060020a1790556040517f6985a02210a168e66602d3235cb6db0e70f92b3ba4d376a33c0f3d9434bff62590600090a1565b600c54600090819060a060020a900460ff1615611ff057600080fd5b6000838152601060209081526040808320600301548352600f909152902060050154421061208e576040805160e560020a62461bcd02815260206004820152602d60248201527f53656174206e6f206c6f6e67657220617661696c61626c652c20666c6967687460448201527f2068617320646570617274656400000000000000000000000000000000000000606482015290519081900360840190fd5b60008381526010602052604081206002015460ff1660018111156120ae57fe5b14612129576040805160e560020a62461bcd02815260206004820152602160248201527f53656174206d757374206e6f7420626520616c7265616479206f63637570696560448201527f6400000000000000000000000000000000000000000000000000000000000000606482015290519081900360840190fd5b61213283613a41565b600084815260106020526040902060010154909150341480156121635750600160a060020a03811680319031340110155b15156121df576040805160e560020a62461bcd02815260206004820152603060248201527f50617373656e676572206d7573742070617920616d6f756e7420657175616c2060448201527f746f207072696365206f66207365617400000000000000000000000000000000606482015290519081900360840190fd5b6000838152601060205260409020600201805460ff1916600117905561220483611856565b156122d65780600160a060020a031661221c84611978565b600160a060020a0316146122c6576040805160e560020a62461bcd02815260206004820152604b60248201527f4572726f722c2063616e6e6f7420626f6f6b20736561742c207365617420616c60448201527f7265616479206578697374732062757420646f6573206e6f742062656c6f6e6760648201527f20746f206169726c696e65000000000000000000000000000000000000000000608482015290519081900360a40190fd5b6122d18133856113ef565b6122ed565b6122e033846137da565b6122ed8361134185613bee565b6122f78184610cd4565b6123018134613ca3565b82337f574cfc3362614e410b85e27150bb0ba320bc271028d35d0c042db3f5d99c817261232d836134dc565b6020015161233a876134dc565b60a00151612347886134dc565b60400151612354896134dc565b60609081015160008b815260106020908152604091829020548251600160c060020a0319909816885290870195909552600160e860020a031993841686820152921690840152600160e060020a031960e060020a909202919091166080830152519081900360a00190a35090919050565b600c54600160a060020a031681565b60068054604080516020601f6002600019610100600188161502019095169490940493840181900481028201810190925282815260609390929091830182828015610cae5780601f10610c8357610100808354040283529160200191610cae565b600d80548290811061244357fe5b600091825260209091200154600160a060020a0316905081565b600033600160a060020a038316146124e5576040805160e560020a62461bcd02815260206004820152602c60248201527f4f6e6c7920746865206169726c696e652063616e20776974686472617720746860448201527f656972206f776e20666565730000000000000000000000000000000000000000606482015290519081900360840190fd5b50600160a060020a038116600090815260136020526040902054303181111561250a57fe5b600160a060020a0382166000818152601360205260408082208290555183156108fc0291849190818181858888f1935050505015801561254e573d6000803e3d6000fd5b50604080518281529051600160a060020a038416917f0ec3b4cd04c3efa6c45d1f84b45079e283daa0121726e4edd939d0ff09dad8dd919081900360200190a25050565b60008060008060006125a261426f565b6125ab876134dc565b602081810151604080840151606085015160a09095015160009c8d5260109094529a2054909a92985090965060e060020a02945092505050565b600160a060020a0382163314156125fb57600080fd5b336000818152600460209081526040808320600160a060020a03871680855290835292819020805460ff1916861515908117909155815190815290519293927f17307eab39ab6107e8899845ad3d59bd9653f200f220920489ca2b5937696c31929181900390910190a35050565b816126743382613297565b151561267f57600080fd5b61268a858585610df0565b61269685858585613cfa565b15156126a157600080fd5b5050505050565b60408051600160c060020a031985166020808301919091527f5f0000000000000000000000000000000000000000000000000000000000000060288301819052602983018690526049830152600160e060020a03198416604a8301528251602e818403018152604e909201928390528151600093918291908401908083835b602083106127465780518252601f199092019160209182019101612727565b5181516020939093036101000a60001901801990911692169190911790526040519201829003909120979650505050505050565b606061278582611856565b151561279057600080fd5b6000828152600b602090815260409182902080548351601f6002600019610100600186161502019093169290920491820184900484028101840190945280845290918301828280156114805780601f106127f857610100808354040283529160200191611480565b820191906000526020600020905b8154815290600101906020018083116128065750939695505050505050565b6000818152600f6020908152604080832080546001808301546005840154600280860154600390960180548851601f96821615610100026000190190911692909204948501899004890282018901909752838152889788978897606097899788979196780100000000000000000000000000000000000000000000000083029660e860020a6801000000000000000085048102976b010000000000000000000000909504029594919360f060020a90920292909185919083018282801561292d5780601f106129025761010080835404028352916020019161292d565b820191906000526020600020905b81548152906001019060200180831161291057829003601f168201915b505050505092509650965096509650965096509650919395979092949650565b600160a060020a03918216600090815260046020908152604080832093909416825291909152205460ff1690565b60408051600160c060020a031984166020808301919091527f5f0000000000000000000000000000000000000000000000000000000000000060288301526029808301859052835180840390910181526049909201928390528151600093918291908401908083835b60208310612a035780518252601f1990920191602091820191016129e4565b5181516020939093036101000a600019018019909116921691909117905260405192018290039091209695505050505050565b600c54600160a060020a03163314612a4d57600080fd5b612a5681613e67565b50565b6000806000806000600c60149054906101000a900460ff16151515612a7d57600080fd5b3360009081526012602052604081205411612b08576040805160e560020a62461bcd02815260206004820152603160248201527f74686973206169726c696e6520646f6573206e6f74206861766520616e79207260448201527f6566756e647320746f2070726f63657373000000000000000000000000000000606482015290519081900360840190fd5b60008781526014602052604090205460ff1615612b6f576040805160e560020a62461bcd02815260206004820152601260248201527f6e6f6e636520616c726561647920757365640000000000000000000000000000604482015290519081900360640190fd5b348814612bec576040805160e560020a62461bcd02815260206004820152602960248201527f616d6f756e74546f526566756e6420646f6573206e6f7420657175616c20616d60448201527f6f756e742073656e740000000000000000000000000000000000000000000000606482015290519081900360840190fd5b604080516c010000000000000000000000003302602080830191909152603482018b905260548083018b9052835180840390910181526074909201928390528151612c5a939182919084019080838360208310611b645780518252601f199092019160209182019101611b45565b945033612c6d868863ffffffff613b1916565b600160a060020a031614612cf1576040805160e560020a62461bcd02815260206004820152602360248201527f496e76616c6964206169726c696e65207369676e61747572652c206e6963652060448201527f7472790000000000000000000000000000000000000000000000000000000000606482015290519081900360840190fd5b336000908152601260205260408120945092505b835483108015612d345750878484815481101515612d1f57fe5b90600052602060002090600302016001015411155b15612e99578383815481101515612d4757fe5b60009182526020909120600390910201548454600160a060020a03909116906108fc90869086908110612d7657fe5b9060005260206000209060030201600101549081150290604051600060405180830381858888f19350505050158015612db3573d6000803e3d6000fd5b508383815481101515612dc257fe5b9060005260206000209060030201600101548803975060018484815481101515612de857fe5b60009182526020909120600390910201600201805460ff19169115159190911790558354849084908110612e1857fe5b60009182526020909120600390910201548454600160a060020a039091169033907fc2b04b489784b951d3cfa2ec26e57b75a91d77cdb16855d74d9e6855c6044ac790879087908110612e6757fe5b9060005260206000209060030201600101546040518082815260200191505060405180910390a3600190920191612d05565b6000881115612eac57612eac3389613ca3565b600091505b836000815481101515612ec057fe5b600091825260209091206002600390920201015460ff16151560011415612fcb575060005b835460001901811015612f7e578381600101815481101515612f0357fe5b90600052602060002090600302018482815481101515612f1f57fe5b6000918252602090912082546003909202018054600160a060020a031916600160a060020a039092169190911781556001808301548183015560029283015492909101805460ff909316151560ff199093169290921790915501612ee5565b835484906000198101908110612f9057fe5b6000918252602082206003909102018054600160a060020a0319168155600180820192909255600201805460ff191690559190910190612eb1565b8354829003612fda85826143db565b505050505050505050565b600080868633612ff58383613ed8565b600160a060020a031614613053576040805160e560020a62461bcd02815260206004820152601d60248201527f4d757374206265206169726c696e65206f662074686520666c69676874000000604482015290519081900360640190fd5b600c5460a060020a900460ff161561306a57600080fd5b613074898961297b565b6000818152600f6020526040902060068101546007909101548951929650919091011115613138576040805160e560020a62461bcd02815260206004820152604360248201527f796f752063616e6e6f7420616464206d6f7265207365617473207468616e207460448201527f686520746f74616c206e756d626572206f6620736561747320666f7220666c6960648201527f6768740000000000000000000000000000000000000000000000000000000000608482015290519081900360a40190fd5b85518751146131b7576040805160e560020a62461bcd02815260206004820152603f60248201527f796f75206d75737420737570706c79206120636f72726573706f6e64696e672060448201527f7365617420707269636520666f7220656163682073656174206e756d62657200606482015290519081900360840190fd5b600092505b8651831015612fda576000848152600f602052604090208751600790910190613217908b908b908b90889081106131ef57fe5b906020019060200201518a8881518110151561320757fe5b906020019060200201518a613f0c565b81546001818101845560009384526020909320015592909201916131bc565b6060600d805480602002602001604051908101604052809291908181526020018280548015610cae57602002820191906000526020600020905b8154600160a060020a03168152600190910190602001808311613270575050505050905090565b6000806132a383611978565b905080600160a060020a031684600160a060020a031614806132de575083600160a060020a03166132d384610cb9565b600160a060020a0316145b806132ee57506132ee818561294d565b949350505050565b81600160a060020a031661330982611978565b600160a060020a03161461331c57600080fd5b600081815260026020526040902054600160a060020a0316156133565760008181526002602052604090208054600160a060020a03191690555b5050565b60008060006133698585614091565b600084815260086020908152604080832054600160a060020a03891684526007909252909120549093506133a490600163ffffffff61411a16565b600160a060020a0386166000908152600760205260409020805491935090839081106133cc57fe5b90600052602060002001549050806007600087600160a060020a0316600160a060020a031681526020019081526020016000208481548110151561340c57fe5b6000918252602080832090910192909255600160a060020a038716815260079091526040812080548490811061343e57fe5b6000918252602080832090910192909255600160a060020a0387168152600790915260409020805490613475906000198301614407565b50600093845260086020526040808520859055908452909220555050565b600061349f838361412c565b50600160a060020a039091166000908152600760209081526040808320805460018101825590845282842081018590559383526008909152902055565b6134e461426f565b60008281526010602090815260408083206003908101548452600f835292819020815161010080820184528254825260018084015478010000000000000000000000000000000000000000000000008102600160c060020a0319168488015268010000000000000000810460e860020a908102600160e860020a0319908116868901526b0100000000000000000000009092040216606080850191909152855190810186526002808601805460f060020a027fffff00000000000000000000000000000000000000000000000000000000000016835298860180548851600019958216159096029490940190931604601f81018890048802840188019096528583529296939560808801959394938582019392918301828280156136495780601f1061361e57610100808354040283529160200191613649565b820191906000526020600020905b81548152906001019060200180831161362c57829003601f168201915b505050918352505060029190910154600160a060020a0316602091820152908252600583015482820152600683015460408084019190915260078401805482518185028101850190935280835260609094019391929091908301828280156136d057602002820191906000526020600020905b8154815260200190600101908083116136bc575b5050505050815250509050919050565b60008060006136ef85856141af565b6000848152600b6020526040902054600260001961010060018416150201909116041561372d576000848152600b6020526040812061372d9161442b565b6000848152600a602052604090205460095490935061375390600163ffffffff61411a16565b915060098281548110151561376457fe5b906000526020600020015490508060098481548110151561378157fe5b6000918252602082200191909155600980548490811061379d57fe5b60009182526020909120015560098054906137bc906000198301614407565b506000938452600a6020526040808520859055908452909220555050565b6137e482826141ff565b600980546000838152600a60205260408120829055600182018355919091527f6e1540171b6c0c960b71a7020d9f60077f6af931a8bbf590da0223dacf75c7af015550565b604080516020808252818301909252606091829160009182919080820161040080388339019050509250600091505b60208210156138de57506008810260020a84027fff000000000000000000000000000000000000000000000000000000000000008116156138d3578083838151811015156138a257fe5b9060200101907effffffffffffffffffffffffffffffffffffffffffffffffffffffffffffff1916908160001a9053505b600190910190613858565b50909392505050565b6138f082611856565b15156138fb57600080fd5b6000828152600b60209081526040909120825161391a928401906142e1565b505050565b60208281015183516060808601518585015160a0808801516040808a01518a87015160008a815260108c52838120548451600160c060020a03198916818f0152948501869052600160e860020a03198085169a86019a909a52988216608085015260e060020a909802600160e060020a031981169584019590955260c08084528751908401528651999a339a7fd1bee02d125ba8e411e91a3117e8dfb167a57d7b9ad5a4679984bbea395a068f9995969395929492839260e0840192908b01918190849084905b838110156139fe5781810151838201526020016139e6565b50505050905090810190601f168015613a2b5780820380516001836020036101000a031916815260200191505b5097505050505050505060405180910390a45050565b6000908152601060209081526040808320600301548352600f909152902060040154600160a060020a031690565b604080517f19457468657265756d205369676e6564204d6573736167653a0a333200000000602080830191909152603c80830185905283518084039091018152605c909201928390528151600093918291908401908083835b60208310613ae75780518252601f199092019160209182019101613ac8565b5181516020939093036101000a6000190180199091169216919091179052604051920182900390912095945050505050565b60008060008084516041141515613b335760009350613be5565b50505060208201516040830151606084015160001a601b60ff82161015613b5857601b015b8060ff16601b14158015613b7057508060ff16601c14155b15613b7e5760009350613be5565b60408051600080825260208083018085528a905260ff8516838501526060830187905260808301869052925160019360a0808501949193601f19840193928390039091019190865af1158015613bd8573d6000803e3d6000fd5b5050506020604051035193505b50505092915050565b604080516020808252818301909252606091829160009182919080820161040080388339019050509250600091505b60208210156138de57506008810260020a84027fff00000000000000000000000000000000000000000000000000000000000000811615613c9857808383815181101515613c6757fe5b9060200101907effffffffffffffffffffffffffffffffffffffffffffffffffffffffffffff1916908160001a9053505b600190910190613c1d565b600160a060020a038216600081815260136020908152604091829020805485019055815184815291517f225b441b89e2814041133f0a1289d508ceeb249f886c9c312131f3746a74dee29281900390910190a25050565b600080613d0f85600160a060020a031661425a565b1515613d1e5760019150613e5e565b6040517f150b7a020000000000000000000000000000000000000000000000000000000081523360048201818152600160a060020a03898116602485015260448401889052608060648501908152875160848601528751918a169463150b7a0294938c938b938b93909160a490910190602085019080838360005b83811015613db1578181015183820152602001613d99565b50505050905090810190601f168015613dde5780820380516001836020036101000a031916815260200191505b5095505050505050602060405180830381600087803b158015613e0057600080fd5b505af1158015613e14573d6000803e3d6000fd5b505050506040513d6020811015613e2a57600080fd5b5051600160e060020a031981167f150b7a020000000000000000000000000000000000000000000000000000000014925090505b50949350505050565b600160a060020a0381161515613e7c57600080fd5b600c54604051600160a060020a038084169216907f8be0079c531659141344cd1fd0a4f28419497f9722a3daafe3b4186f6b6457e090600090a3600c8054600160a060020a031916600160a060020a0392909216919091179055565b6000600f6000613ee8858561297b565b8152602081019190915260400160002060040154600160a060020a03169392505050565b600080613f1761446f565b613f228888886126a8565b6040805160e081018252600160e060020a03198916815260208101889052919350810160008152602001856002811115613f5857fe5b8152602001613f678a8a61297b565b8152600060208083018290526001604093840181905286835260108252918390208451815463ffffffff191660e060020a90910417815590840151818301559183015160028301805494955085949192909160ff1916908381811115613fc957fe5b021790555060608201518160020160016101000a81548160ff02191690836002811115613ff257fe5b02179055506080820151600382015560a08201516004909101805460c09093015115156101000261ff001992151560ff1990941693909317919091169190911790557f21a8d89e1f3c6e3eaa19284633750b71cf1081477114f3e2a30d8052f74b9db061405f898961297b565b60408051918252600160e060020a031989166020830152818101859052519081900360600190a1509695505050505050565b81600160a060020a03166140a482611978565b600160a060020a0316146140b757600080fd5b600160a060020a0382166000908152600360205260409020546140e190600163ffffffff61411a16565b600160a060020a039092166000908152600360209081526040808320949094559181526001909152208054600160a060020a0319169055565b60008282111561412657fe5b50900390565b600081815260016020526040902054600160a060020a03161561414e57600080fd5b60008181526001602081815260408084208054600160a060020a031916600160a060020a038816908117909155845260039091529091205461418f91614262565b600160a060020a0390921660009081526003602052604090209190915550565b6141b982826132f6565b6141c3828261335a565b6040518190600090600160a060020a038516907fddf252ad1be2c89b69c2b068fc378daa952ba7f163c4a11628f55a4df523b3ef908390a45050565b600160a060020a038216151561421457600080fd5b61421e8282613493565b6040518190600160a060020a038416906000907fddf252ad1be2c89b69c2b068fc378daa952ba7f163c4a11628f55a4df523b3ef908290a45050565b6000903b1190565b8181018281101561199c57fe5b60408051610140810182526000808252602082018190529181018290526060810191909152608081016142a061437f565b81526020016000815260200160008152602001606081525090565b604080516080810182526000808252602082018190529181019190915260608082015290565b828054600181600116156101000203166002900490600052602060002090601f016020900481019282601f1061432257805160ff191683800117855561434f565b8280016001018555821561434f579182015b8281111561434f578251825591602001919060010190614334565b5061435b9291506144ac565b5090565b604080516060810182526000808252602082018190529181019190915290565b6040805160608181018352600080835260208301919091529181019190915290565b82805482825590600052602060002090810192821561434f579160200282018281111561434f578251825591602001919060010190614334565b81548183558181111561391a5760030281600302836000526020600020918201910161391a91906144c6565b81548183558181111561391a5760008381526020902061391a9181019083016144ac565b50805460018160011615610100020316600290046000825580601f106144515750612a56565b601f016020900490600052602060002090810190612a5691906144ac565b6040805160e08101825260008082526020820181905290918201908152602001600081526000602082018190526040820181905260609091015290565b610cb691905b8082111561435b57600081556001016144b2565b610cb691905b8082111561435b578054600160a060020a03191681556000600182015560028101805460ff191690556003016144cc5600a165627a7a72305820b76fefa3e75fcbd1a83a48d09ac078af7f2e5eaa8c926cdbf49fdac71b9482f40029",
  "source": "pragma solidity ^0.4.24;\n\nimport {ERC721Token} from \"openzeppelin-solidity/contracts/token/ERC721/ERC721Token.sol\";\nimport \"openzeppelin-solidity/contracts/ECRecovery.sol\";\nimport \"openzeppelin-solidity/contracts/lifecycle/Pausable.sol\";\n\ncontract FlightSeatsGlobalDistributor is ERC721Token(\"Flight Seat Distributor\", \"FLIGHT-SEAT\"), Pausable {\n\n    using ECRecovery for bytes32;\n\n    enum CabinClass {Economy, Business, First}\n    enum SeatOccupiedStatus {Vacant, Occupied}\n\n    /**\n     * Ensure the given message sender is the passenger who owns the seat or the airline of the flight\n     */\n    modifier onlyAirlineOrPassengerOf(uint256 _seatId) {\n        require(getAirlineAddressForSeat(_seatId) == msg.sender || ownerOf(_seatId) == msg.sender, \"Must be airline or passenger who owns the seat\");\n        _;\n    }\n\n    /**\n     * Ensure the given message sender is the airline of the flight which contains the seat\n     */\n    modifier onlyAirlineOf(uint256 _seatId) {\n        require(getAirlineAddressForSeat(_seatId) == msg.sender, \"Must be airline of the flight\");\n        _;\n    }\n\n    /**\n     * Ensure the given message sender is the passenger who owns the seat\n     */\n    modifier onlyPassengerOf(uint256 _seatId) {\n        require(ownerOf(_seatId) == msg.sender, \"Must be passenger who owns the seat\");\n        _;\n    }\n\n    /**\n     * Ensure the given message sender is the passenger who owns the seat or the airline of the flight\n     */\n    modifier onlyAirlineOfFlight(bytes8 _flightNumber, uint _departureDateTime){\n        require(getAirlineAddressForFlight(_flightNumber, _departureDateTime) == msg.sender, \"Must be airline of the flight\");\n        _;\n    }\n\n    // a struct model for an Airline\n    struct Airline {\n        bytes2 code;\n        string name;\n        address airlineAddress;\n    }\n\n    // a struct model for a Flight\n    struct Flight {\n        bytes32 flightId;\n        bytes8 flightNumber;\n        bytes3 origin;\n        bytes3 destination;\n        Airline airline;\n        uint departureDateTime;\n        uint totalNumberSeats;\n        uint256[] seatIds;\n    }\n\n    // a struct model for a Seat\n    struct Seat {\n        bytes4 seatNumber;\n        uint price;\n        SeatOccupiedStatus occupiedStatus;\n        CabinClass cabin;\n        bytes32 flightId;\n        bool checkedIn;\n        bool isSeat;\n    }\n\n    // a struct model for a Boarding Pass\n    struct BoardingPass {\n        uint256 id;\n        uint256 seatId;\n        bytes32 barcodeString;\n        bytes passportScanIpfsHash;\n    }\n\n    // a struct model for a Booking Refund\n    struct BookingRefund {\n        address recipient;\n        uint amount;\n        bool paid;\n    }\n\n    address[] public activeAirlines; // airlines currently using the system\n\n    mapping(address => bytes32[]) internal flightIds; // airlines to their belonging flightIds\n\n    mapping(bytes32 => Flight) internal flights; // flightIds to flights.\n\n    mapping(uint256 => Seat) internal seats; // seatIds to seats.\n\n    mapping(uint256 => BoardingPass) internal seatBoardingPasses; // seatIds to boarding passes.\n\n    mapping(address => BookingRefund[]) private airlineRefundsToBeProcessed; // airlines to their BookingRefunds to be processed in the future\n\n    mapping(address => uint256) private airlineFlightFeeDeposits; // airlines to their seat booking fees which they can withdraw\n\n    mapping(uint256 => bool) private usedNonces; // nonces to guarantee unique function invocations\n\n    // gets the airlines currently using the system\n    function getActiveAirlines() public view returns (address[]) {\n        return activeAirlines;\n    }\n\n    // gets the flightId for a given flightNumber and _departureDateTime\n    function getFlightId(bytes8 _flightNumber, uint _departureDateTime) public pure returns (bytes32){\n        return keccak256(abi.encodePacked(_flightNumber, \"_\", _departureDateTime));\n    }\n\n    // gets the seatId for a given flightNumber, _departureDateTime and seatNumber\n    function getSeatId(bytes8 _flightNumber, uint _departureDateTime, bytes4 _seatNumber) public pure returns (uint256){\n        return uint256(keccak256(abi.encodePacked(_flightNumber, \"_\", _departureDateTime, \"_\", _seatNumber)));\n    }\n\n    // gets all flightId's belonging to given airline\n    function getFlightIdsForAirline(address _airlineAddress) public view returns (bytes32[] memory) {\n        return flightIds[_airlineAddress];\n    }\n\n    // gets a single Flight based on given flightId\n    function getFlight(bytes32 _flightId) public view returns (bytes32,bytes8,bytes3,bytes3,string,uint,bytes2){\n        return (flights[_flightId].flightId, flights[_flightId].flightNumber, flights[_flightId].origin, flights[_flightId].destination, flights[_flightId].airline.name, flights[_flightId].departureDateTime, flights[_flightId].airline.code);\n    }\n\n    // gets a single Seat based on given seatId\n    function getSeat(uint256 _seatId) public view returns(uint, bytes4, uint, SeatOccupiedStatus, CabinClass, bool, bool) {\n        return (_seatId, seats[_seatId].seatNumber, seats[_seatId].price, seats[_seatId].occupiedStatus, seats[_seatId].cabin, seats[_seatId].checkedIn, seats[_seatId].isSeat);\n    }\n\n    // gets all seatId's belonging to given flight\n    function getSeatsForFlight(bytes32 _flightId) public view returns (uint256[]){\n        return flights[_flightId].seatIds;\n    }\n\n    // get the flight which contains a given seatId\n    function getFlightOfSeat(uint256 _seatId) private view returns (Flight){\n        return flights[seats[_seatId].flightId];\n    }\n\n    // get the airline who owns the flight containing the given seatId\n    function getAirlineAddressForSeat(uint _seatId) private view returns (address){\n        return flights[seats[_seatId].flightId].airline.airlineAddress;\n    }\n\n    // get the airline who owns the flight\n    function getAirlineAddressForFlight(bytes8 _flightNumber, uint _departureDateTime) private view returns (address){\n        return flights[getFlightId(_flightNumber, _departureDateTime)].airline.airlineAddress;\n    }\n\n    // get the boarding pass for a given seat id\n    function getBoardingPassForSeat(uint _seatId) public view returns (uint256, uint256, bytes32, bytes) {\n        return(seatBoardingPasses[_seatId].id, seatBoardingPasses[_seatId].seatId, seatBoardingPasses[_seatId].barcodeString, seatBoardingPasses[_seatId].passportScanIpfsHash);\n    }\n\n    event SeatCreatedEvent (\n        bytes32 flightId,\n        bytes4 seatNumber,\n        uint256 seatId\n    );\n\n    event SeatBookedEvent (\n        address indexed seatOwner,\n        uint256 indexed seatId,\n        bytes8 flightNumber,\n        uint departureDateTime,\n        bytes3 origin,\n        bytes3 destination,\n        bytes4 seatNumber\n    );\n\n    event BoardingPassGeneratedEvent (\n        uint256 indexed boardingPassId,\n        address indexed boardingPassOwner,\n        uint256 indexed seatId,\n        bytes passportScanIpfsHash,\n        bytes8 flightNumber,\n        uint departureDateTime,\n        bytes3 origin,\n        bytes3 destination,\n        bytes4 seatNumber\n    );\n\n    event FlightFeeDeposited(address indexed airline, uint256 weiAmount);\n    event FlightFeesWithdrawn(address indexed airline, uint256 weiAmount);\n    event RefundProcessedEvent(address indexed airline, address indexed recipient, uint256 weiAmount);\n\n\n    /**\n     * @dev Constructor function, creates a single flight for demo purposes, and pre-populates this single flight with seat inventory for 3 cabins.\n     */\n    constructor() public {\n        createFlight(0x4241313235000000,0x4c4852,0x4a464b,1543734893,0x4241,\"British Airways\",6,owner,abi.encodePacked(\"\"),555);\n\n        bytes4[] memory _seatNumbersPrepopulated = new bytes4[](2);\n        uint256[] memory _seatPricesPrepopulated = new uint256[](2);\n\n        _seatNumbersPrepopulated[0] = 0x31410000;\n        _seatNumbersPrepopulated[1] = 0x31420000;\n\n        _seatPricesPrepopulated[0] = 10000000000000000000;\n        _seatPricesPrepopulated[1] = 9000000000000000000;\n\n        addSeatInventoryToFlightCabin(0x4241313235000000, 1543734893, _seatNumbersPrepopulated, _seatPricesPrepopulated,CabinClass.First);\n\n        _seatNumbersPrepopulated[0] = 0x32410000;\n        _seatNumbersPrepopulated[1] = 0x32420000;\n\n        _seatPricesPrepopulated[0] = 6000000000000000000;\n        _seatPricesPrepopulated[1] = 5000000000000000000;\n\n        addSeatInventoryToFlightCabin(0x4241313235000000, 1543734893, _seatNumbersPrepopulated, _seatPricesPrepopulated,CabinClass.Business);\n\n        _seatNumbersPrepopulated[0] = 0x33410000;\n        _seatNumbersPrepopulated[1] = 0x33420000;\n\n        _seatPricesPrepopulated[0] = 3000000000000000000;\n        _seatPricesPrepopulated[1] = 2000000000000000000;\n\n        addSeatInventoryToFlightCabin(0x4241313235000000, 1543734893, _seatNumbersPrepopulated, _seatPricesPrepopulated,CabinClass.Economy);\n    }\n\n\n    /**\n     * @dev Initialises a Flight in storage for an airline\n     * @param _flightNumber bytes8 of the flight\n     * @param _origin bytes3 IATA code for origin airport\n     * @param _destination bytes3 IATA code for destination airport\n     * @param _departureDateTime uint256 representing the departure dateTime\n     * @param _airlineCode bytes2 IATA airline code for the airline\n     * @param _airlineName string of the airline\n     * @param _totalNumberSeats uint256 to represent total seat count for this flight\n     * @param _airlineAddress address of the airline owning this flight\n     * @param _signature bytes representing the digital signature from the airline containing flightId, airlineAddress and nonce\n     * @param _nonce uint256 nonce to guarantee unique digital signature on each invocation\n     * @return bytes32 flight ID of the flight which is used as the key to obtain the Flight model from storage\n     */\n    function createFlight(\n        bytes8 _flightNumber,\n        bytes3 _origin,\n        bytes3 _destination,\n        uint256 _departureDateTime,\n        bytes2 _airlineCode,\n        string _airlineName,\n        uint256 _totalNumberSeats,\n        address _airlineAddress,\n        bytes _signature,\n        uint256 _nonce\n    )\n        whenNotPaused\n        public\n        returns (bytes32)\n    {\n        require(!usedNonces[_nonce]);\n\n        bytes32 _flightId = getFlightId(_flightNumber, _departureDateTime);\n        bytes32 _expectedSignature = keccak256(abi.encodePacked(_flightId, _airlineAddress, _nonce)).toEthSignedMessageHash();\n\n        if (msg.sender != owner) { // contract owner populates a single flight for demo purposes in the constructor, and gets a pass on the _signature.\n            require(_expectedSignature.recover(_signature) == _airlineAddress, \"Invalid signature\");\n        }\n        require(_departureDateTime > now, \"Flight has departed\");\n\n        Airline memory _airline = Airline({\n            code: _airlineCode,\n            name: _airlineName,\n            airlineAddress: _airlineAddress\n            });\n\n        flights[_flightId] = Flight({\n            flightId: _flightId,\n            flightNumber: _flightNumber,\n            origin: _origin,\n            destination: _destination,\n            airline: _airline,\n            departureDateTime: _departureDateTime,\n            totalNumberSeats: _totalNumberSeats,\n            seatIds: new uint[](0)\n            });\n\n        activeAirlines.push(_airlineAddress);\n        flightIds[_airlineAddress].push(_flightId);\n        usedNonces[_nonce] = true;\n\n        return _flightId;\n    }\n\n\n    /**\n    * @dev adds seat inventory to a flight, supplying seatNumbers and corresponding seatPrices\n    * @param _flightNumber bytes8 of the flight\n    * @param _departureDateTime uint256 representing the departure dateTime\n    * @param _seatNumbers bytes4[] containing the seat numbers of seats to be added to the flight\n    * @param _seatPrices uint256[] containing the seat prices of seats to be added to the flight\n    * @param _cabin CabinClass which will contain the newly added seats\n    */\n    function addSeatInventoryToFlightCabin(\n        bytes8 _flightNumber,\n        uint256 _departureDateTime,\n        bytes4[] _seatNumbers,\n        uint256[] _seatPrices,\n        CabinClass _cabin\n    )\n        onlyAirlineOfFlight(_flightNumber, _departureDateTime)\n        whenNotPaused\n        public\n    {\n        bytes32 _flightId = getFlightId(_flightNumber, _departureDateTime);\n        require((_seatNumbers.length + flights[_flightId].seatIds.length) <= flights[_flightId].totalNumberSeats, \"you cannot add more seats than the total number of seats for flight\");\n        require(_seatNumbers.length == _seatPrices.length, \"you must supply a corresponding seat price for each seat number\");\n\n        for(uint i=0; i<_seatNumbers.length; i++){\n            flights[_flightId].seatIds.push(createSeat(_flightNumber, _departureDateTime, _seatNumbers[i], _seatPrices[i], _cabin));\n        }\n    }\n\n\n    /**\n    * @dev creates a single seat for seat number and seat price\n    * @param _flightNumber bytes8 of the flight\n    * @param _departureDateTime uint256 representing the departure dateTime\n    * @param _seatNumber bytes4 containing the seat numbers of seats to be added to the flight\n    * @param _price uint256 containing the seat prices of seats to be added to the flight\n    * @param _cabin CabinClass which will contain the newly added seats\n    */\n    function  createSeat(\n        bytes8 _flightNumber,\n        uint _departureDateTime,\n        bytes4 _seatNumber,\n        uint256 _price,\n        CabinClass _cabin\n    )\n        private returns (uint256)\n    {\n        uint256 _seatId = getSeatId(_flightNumber, _departureDateTime, _seatNumber);\n        Seat memory _seat = Seat({\n            seatNumber: _seatNumber,\n            price: _price,\n            occupiedStatus: SeatOccupiedStatus.Vacant,\n            cabin: _cabin,\n            flightId: getFlightId(_flightNumber, _departureDateTime),\n            checkedIn: false,\n            isSeat: true\n            });\n\n        seats[_seatId] = _seat;\n\n        emit SeatCreatedEvent(getFlightId(_flightNumber, _departureDateTime), _seatNumber, _seatId);\n        return _seatId;\n    }\n\n\n    /**\n    * @dev books a seat for a passenger, sets seat state to occupied, takes payment from passenger and deposits the fee for the airline, mints new ERC721 Seat token and sends to passenger.\n    * @param _seatId uint256 of the seat which is to be booked\n    * @return uint256 _seatId of the seat which has been booked\n    */\n    function bookSeat(uint256 _seatId)\n        whenNotPaused\n        public\n        payable\n        returns (uint256)\n    {\n        require(flights[seats[_seatId].flightId].departureDateTime > now, \"Seat no longer available, flight has departed\");\n        require(seats[_seatId].occupiedStatus == SeatOccupiedStatus.Vacant, \"Seat must not be already occupied\");\n\n        address _airlineAddress = getAirlineAddressForSeat(_seatId);\n        require(msg.value == seats[_seatId].price && _airlineAddress.balance + msg.value >= _airlineAddress.balance, \"Passenger must pay amount equal to price of seat\");\n\n        seats[_seatId].occupiedStatus = SeatOccupiedStatus.Occupied;\n\n        if(exists(_seatId)){ // seat will already exist if was previously booked/minted and subsequently cancelled. In this case the seat should have been returned to the airline.\n            require(ownerOf(_seatId) == _airlineAddress, \"Error, cannot book seat, seat already exists but does not belong to airline\");\n            safeTransferFrom(_airlineAddress, msg.sender, _seatId);\n        }\n        else{\n            _mint(msg.sender, _seatId);\n            _setTokenURI(_seatId, uint256ToString(_seatId));\n        }\n\n        approve(_airlineAddress, _seatId);\n        depositFlightFeeToAirline(_airlineAddress, msg.value);\n\n        emit SeatBookedEvent(msg.sender, _seatId, getFlightOfSeat(_seatId).flightNumber, getFlightOfSeat(_seatId).departureDateTime, getFlightOfSeat(_seatId).origin, getFlightOfSeat(_seatId).destination, seats[_seatId].seatNumber);\n\n        return _seatId;\n    }\n\n\n    /**\n    * @dev deposits seat fee for the airline to withdraw at a later time\n    * @param _airline address of the airline\n    * @return _amount uint256 to be deposited for airline\n    */\n    function depositFlightFeeToAirline(address _airline, uint256 _amount) internal {\n        airlineFlightFeeDeposits[_airline] = airlineFlightFeeDeposits[_airline] + _amount;\n\n        emit FlightFeeDeposited(_airline, _amount);\n    }\n\n\n    /**\n    * @dev allows the airline to withdraw the seat fee deposits\n    * @param _airline address of the airline\n    */\n    function withdrawFlightFees(address _airline) public {\n        require(msg.sender == _airline, \"Only the airline can withdraw their own fees\");\n\n        uint256 payment = airlineFlightFeeDeposits[_airline];\n        assert(address(this).balance >= payment);\n\n        airlineFlightFeeDeposits[_airline] = 0;\n        _airline.transfer(payment);\n\n        emit FlightFeesWithdrawn(_airline, payment);\n    }\n\n\n\n    /**\n    * @dev checks in a passenger, burns their ERC721 Seat token, mints new ERC721 Boarding Pass token containing QR-code barcode-string and IPFS passport-scan hash\n    * @param _seatId uint256 of the seat which is to be booked\n    * @return uint256 _seatId of the seat which has been booked\n    */\n    function checkinPassenger(uint256 _seatId, bytes32 _barcodeString, bytes memory _passportScanIpfsHash)\n        onlyPassengerOf(_seatId)\n        whenNotPaused\n        public\n        returns (uint256)\n    {\n        require(exists(_seatId), \"Seat must exist in order to check in\");\n\n        Flight memory _flight = getFlightOfSeat(_seatId);\n\n        require(seats[_seatId].checkedIn == false, \"Seat is already checked in\");\n        require(_flight.departureDateTime > now, \"Too late to check in, flight has departed\");\n        require(seats[_seatId].occupiedStatus == SeatOccupiedStatus.Occupied, \"Seat must be occupied\");\n\n        seats[_seatId].checkedIn = true;\n\n        uint256 _boardingPassId = uint256(keccak256(abi.encodePacked(_barcodeString, \"_\", _passportScanIpfsHash)));\n\n        _burn(msg.sender, _seatId);\n        _mint(msg.sender, _boardingPassId);\n        _setTokenURI(_boardingPassId, bytes32ToString(_barcodeString));\n        approve(_flight.airline.airlineAddress, _boardingPassId);\n\n        BoardingPass memory _boardingPass = BoardingPass({\n            id: _boardingPassId,\n            seatId: _seatId,\n            barcodeString: _barcodeString,\n            passportScanIpfsHash: _passportScanIpfsHash\n        });\n\n        seatBoardingPasses[_seatId] = _boardingPass;\n        emitBoardingPassGeneratedEvent(_boardingPass, _flight);\n\n        return _boardingPassId;\n    }\n\n    function emitBoardingPassGeneratedEvent(BoardingPass memory _boardingPass, Flight memory _flight) private view {\n        emit BoardingPassGeneratedEvent(_boardingPass.id, msg.sender, _boardingPass.seatId, _boardingPass.passportScanIpfsHash, _flight.flightNumber, _flight.departureDateTime, _flight.origin, _flight.destination, seats[_boardingPass.seatId].seatNumber);\n    }\n\n    // builds a barcode-string to be encoded in a Boarding Pass QRcode containing the salient flight and seat information for a given seatId\n    function getBarcodeStringParametersForBoardingPass(uint256 _seatId) public view returns (bytes8, bytes3, bytes3, uint256, bytes4){\n        Flight memory _flight = getFlightOfSeat(_seatId);\n        return (_flight.flightNumber, _flight.origin, _flight.destination, _flight.departureDateTime, seats[_seatId].seatNumber);\n    }\n\n\n    /**\n    * @dev cancels a seat booking for a passenger, returns the ERC721 Seat token to the airline, enqueues a BookingRefund to be processed by the airline at a later time.\n    * @param _seatId uint256 of the seat which is to be cancelled\n    * @return uint256 _seatId of the seat which has been cancelled\n    */\n    function cancelSeatBooking(uint256 _seatId)\n    onlyAirlineOrPassengerOf(_seatId)\n    whenNotPaused\n    public\n    returns (uint)\n    {\n        require(exists(_seatId), \"Seat must exist in order to cancel seat booking\");\n        require(seats[_seatId].occupiedStatus == SeatOccupiedStatus.Occupied, \"Seat must be occupied\");\n        require(seats[_seatId].checkedIn == false, \"You cannot cancel a booking after checkin is completed\");\n\n        seats[_seatId].occupiedStatus = SeatOccupiedStatus.Vacant;\n\n        address _airline = getAirlineAddressForSeat(_seatId);\n        address _passenger = ownerOf(_seatId);\n        require(_passenger != _airline, \"this seat has already been cancelled and returned to the airline\");\n\n        BookingRefund memory _refund = BookingRefund({\n            recipient: _passenger,\n            amount: seats[_seatId].price,\n            paid: false\n            });\n\n        safeTransferFrom(_passenger, _airline, _seatId);\n        airlineRefundsToBeProcessed[_airline].push(_refund);\n\n        return _seatId;\n    }\n\n\n    /**\n    * @dev processes airline refunds, takes payment from airline and sends refunds to passengers who are owed, in queued order.\n    * @param _amountToRefund uint256 total amount to be refunded by the airline to the next awaiting passengers in this iteration.\n    * @param _nonce uint256 to guarantee unique invocations.\n    * @param _airlineSig digital signature of airline containing airline address, nonce, amount to be refunded\n    */\n    function processAirlineRefunds(uint256 _amountToRefund, uint256 _nonce, bytes _airlineSig)\n        whenNotPaused\n        public\n        payable\n    {\n        require(airlineRefundsToBeProcessed[msg.sender].length > 0, \"this airline does not have any refunds to process\");\n        require(!usedNonces[_nonce], \"nonce already used\");\n        require(_amountToRefund == msg.value, \"amountToRefund does not equal amount sent\");\n\n        // Check the signer of the offer is the correct airline address to prevent replay attacks\n        bytes32 airlineSigned = keccak256(abi.encodePacked(msg.sender, _amountToRefund, _nonce)).toEthSignedMessageHash();\n        require(airlineSigned.recover(_airlineSig) == msg.sender, \"Invalid airline signature, nice try\");\n\n        BookingRefund[] storage _refunds = airlineRefundsToBeProcessed[msg.sender];\n\n        for(uint i=0; i<_refunds.length && _refunds[i].amount <= _amountToRefund; i++){\n            _refunds[i].recipient.transfer(_refunds[i].amount);\n            _amountToRefund -= _refunds[i].amount;\n            _refunds[i].paid = true;\n            emit RefundProcessedEvent(msg.sender, _refunds[i].recipient, _refunds[i].amount);\n        }\n\n        // return excess refund funds to the airline.\n        if(_amountToRefund > 0){\n            depositFlightFeeToAirline(msg.sender, _amountToRefund);\n        }\n\n        //  shift left on the _refunds array and delete to remove all paid\n        uint deleted = 0;\n        while (_refunds[0].paid == true){\n            for(uint j=0 ;j<_refunds.length-1; j++) {\n                _refunds[j] =  _refunds[j+1];\n            }\n            delete _refunds[_refunds.length-1];\n            deleted++;\n        }\n        _refunds.length -= deleted;\n    }\n\n    // utility to convert bytes32 to string\n    function bytes32ToString (bytes32 data) private pure returns (string) {\n        bytes memory bytesString = new bytes(32);\n        for (uint j=0; j<32; j++) {\n            byte char = byte(bytes32(uint(data) * 2 ** (8 * j)));\n            if (char != 0) {\n                bytesString[j] = char;\n            }\n        }\n        return string(bytesString);\n    }\n\n    // utility to convert uint256 to string\n    function uint256ToString (uint256 data) private pure returns (string) {\n        bytes memory bytesString = new bytes(32);\n        for (uint256 j=0; j<32; j++) {\n            byte char = byte(bytes32(data * 2 ** (8 * j)));\n            if (char != 0) {\n                bytesString[j] = char;\n            }\n        }\n        return string(bytesString);\n    }\n\n    // kill contract and return funds to owner\n    function kill() public {\n        if (msg.sender == owner) selfdestruct(owner);\n    }\n\n\n}\n",
  "sourcePath": "/Users/james.glennon/eth-dev/flight-seats-global-distributor-lite-server/contracts/FlightSeatsGlobalDistributor.sol",
  "compiler": {
    "name": "solc",
    "version": "0.4.24+commit.e67f0147.Emscripten.clang"
  },
  "schemaVersion": "2.0.1",
  "updatedAt": "2018-08-27T20:47:16.848Z"
}