{
  "contractName": "FlightSeatsGlobalDistributor",
  "abi": [
    {
      "constant": true,
      "inputs": [
        {
          "name": "_interfaceId",
          "type": "bytes4"
        }
      ],
      "name": "supportsInterface",
      "outputs": [
        {
          "name": "",
          "type": "bool"
        }
      ],
      "payable": false,
      "stateMutability": "view",
      "type": "function"
    },
    {
      "constant": true,
      "inputs": [],
      "name": "name",
      "outputs": [
        {
          "name": "",
          "type": "string"
        }
      ],
      "payable": false,
      "stateMutability": "view",
      "type": "function"
    },
    {
      "constant": true,
      "inputs": [
        {
          "name": "_tokenId",
          "type": "uint256"
        }
      ],
      "name": "getApproved",
      "outputs": [
        {
          "name": "",
          "type": "address"
        }
      ],
      "payable": false,
      "stateMutability": "view",
      "type": "function"
    },
    {
      "constant": false,
      "inputs": [
        {
          "name": "_to",
          "type": "address"
        },
        {
          "name": "_tokenId",
          "type": "uint256"
        }
      ],
      "name": "approve",
      "outputs": [],
      "payable": false,
      "stateMutability": "nonpayable",
      "type": "function"
    },
    {
      "constant": true,
      "inputs": [],
      "name": "totalSupply",
      "outputs": [
        {
          "name": "",
          "type": "uint256"
        }
      ],
      "payable": false,
      "stateMutability": "view",
      "type": "function"
    },
    {
      "constant": true,
      "inputs": [],
      "name": "InterfaceId_ERC165",
      "outputs": [
        {
          "name": "",
          "type": "bytes4"
        }
      ],
      "payable": false,
      "stateMutability": "view",
      "type": "function"
    },
    {
      "constant": false,
      "inputs": [
        {
          "name": "_from",
          "type": "address"
        },
        {
          "name": "_to",
          "type": "address"
        },
        {
          "name": "_tokenId",
          "type": "uint256"
        }
      ],
      "name": "transferFrom",
      "outputs": [],
      "payable": false,
      "stateMutability": "nonpayable",
      "type": "function"
    },
    {
      "constant": true,
      "inputs": [
        {
          "name": "_owner",
          "type": "address"
        },
        {
          "name": "_index",
          "type": "uint256"
        }
      ],
      "name": "tokenOfOwnerByIndex",
      "outputs": [
        {
          "name": "",
          "type": "uint256"
        }
      ],
      "payable": false,
      "stateMutability": "view",
      "type": "function"
    },
    {
      "constant": false,
      "inputs": [],
      "name": "unpause",
      "outputs": [],
      "payable": false,
      "stateMutability": "nonpayable",
      "type": "function"
    },
    {
      "constant": false,
      "inputs": [
        {
          "name": "_from",
          "type": "address"
        },
        {
          "name": "_to",
          "type": "address"
        },
        {
          "name": "_tokenId",
          "type": "uint256"
        }
      ],
      "name": "safeTransferFrom",
      "outputs": [],
      "payable": false,
      "stateMutability": "nonpayable",
      "type": "function"
    },
    {
      "constant": true,
      "inputs": [
        {
          "name": "_tokenId",
          "type": "uint256"
        }
      ],
      "name": "exists",
      "outputs": [
        {
          "name": "",
          "type": "bool"
        }
      ],
      "payable": false,
      "stateMutability": "view",
      "type": "function"
    },
    {
      "constant": true,
      "inputs": [
        {
          "name": "_index",
          "type": "uint256"
        }
      ],
      "name": "tokenByIndex",
      "outputs": [
        {
          "name": "",
          "type": "uint256"
        }
      ],
      "payable": false,
      "stateMutability": "view",
      "type": "function"
    },
    {
      "constant": true,
      "inputs": [],
      "name": "paused",
      "outputs": [
        {
          "name": "",
          "type": "bool"
        }
      ],
      "payable": false,
      "stateMutability": "view",
      "type": "function"
    },
    {
      "constant": true,
      "inputs": [
        {
          "name": "_tokenId",
          "type": "uint256"
        }
      ],
      "name": "ownerOf",
      "outputs": [
        {
          "name": "",
          "type": "address"
        }
      ],
      "payable": false,
      "stateMutability": "view",
      "type": "function"
    },
    {
      "constant": true,
      "inputs": [
        {
          "name": "_owner",
          "type": "address"
        }
      ],
      "name": "balanceOf",
      "outputs": [
        {
          "name": "",
          "type": "uint256"
        }
      ],
      "payable": false,
      "stateMutability": "view",
      "type": "function"
    },
    {
      "constant": false,
      "inputs": [],
      "name": "renounceOwnership",
      "outputs": [],
      "payable": false,
      "stateMutability": "nonpayable",
      "type": "function"
    },
    {
      "constant": false,
      "inputs": [],
      "name": "pause",
      "outputs": [],
      "payable": false,
      "stateMutability": "nonpayable",
      "type": "function"
    },
    {
      "constant": true,
      "inputs": [],
      "name": "owner",
      "outputs": [
        {
          "name": "",
          "type": "address"
        }
      ],
      "payable": false,
      "stateMutability": "view",
      "type": "function"
    },
    {
      "constant": true,
      "inputs": [],
      "name": "symbol",
      "outputs": [
        {
          "name": "",
          "type": "string"
        }
      ],
      "payable": false,
      "stateMutability": "view",
      "type": "function"
    },
    {
      "constant": true,
      "inputs": [
        {
          "name": "",
          "type": "uint256"
        }
      ],
      "name": "activeAirlines",
      "outputs": [
        {
          "name": "",
          "type": "address"
        }
      ],
      "payable": false,
      "stateMutability": "view",
      "type": "function"
    },
    {
      "constant": false,
      "inputs": [
        {
          "name": "_to",
          "type": "address"
        },
        {
          "name": "_approved",
          "type": "bool"
        }
      ],
      "name": "setApprovalForAll",
      "outputs": [],
      "payable": false,
      "stateMutability": "nonpayable",
      "type": "function"
    },
    {
      "constant": false,
      "inputs": [
        {
          "name": "_from",
          "type": "address"
        },
        {
          "name": "_to",
          "type": "address"
        },
        {
          "name": "_tokenId",
          "type": "uint256"
        },
        {
          "name": "_data",
          "type": "bytes"
        }
      ],
      "name": "safeTransferFrom",
      "outputs": [],
      "payable": false,
      "stateMutability": "nonpayable",
      "type": "function"
    },
    {
      "constant": true,
      "inputs": [
        {
          "name": "_tokenId",
          "type": "uint256"
        }
      ],
      "name": "tokenURI",
      "outputs": [
        {
          "name": "",
          "type": "string"
        }
      ],
      "payable": false,
      "stateMutability": "view",
      "type": "function"
    },
    {
      "constant": true,
      "inputs": [
        {
          "name": "_owner",
          "type": "address"
        },
        {
          "name": "_operator",
          "type": "address"
        }
      ],
      "name": "isApprovedForAll",
      "outputs": [
        {
          "name": "",
          "type": "bool"
        }
      ],
      "payable": false,
      "stateMutability": "view",
      "type": "function"
    },
    {
      "constant": false,
      "inputs": [
        {
          "name": "_newOwner",
          "type": "address"
        }
      ],
      "name": "transferOwnership",
      "outputs": [],
      "payable": false,
      "stateMutability": "nonpayable",
      "type": "function"
    },
    {
      "inputs": [],
      "payable": false,
      "stateMutability": "nonpayable",
      "type": "constructor"
    },
    {
      "anonymous": false,
      "inputs": [
        {
          "indexed": false,
          "name": "flightNumber",
          "type": "bytes8"
        },
        {
          "indexed": false,
          "name": "departureDateTime",
          "type": "uint256"
        },
        {
          "indexed": false,
          "name": "flightId",
          "type": "bytes32"
        },
        {
          "indexed": false,
          "name": "signature",
          "type": "bytes32"
        }
      ],
      "name": "AddressRecoveredEvent",
      "type": "event"
    },
    {
      "anonymous": false,
      "inputs": [
        {
          "indexed": false,
          "name": "flightId",
          "type": "bytes32"
        },
        {
          "indexed": false,
          "name": "seatNumber",
          "type": "bytes4"
        },
        {
          "indexed": false,
          "name": "seatId",
          "type": "uint256"
        }
      ],
      "name": "SeatCreatedEvent",
      "type": "event"
    },
    {
      "anonymous": false,
      "inputs": [
        {
          "indexed": true,
          "name": "seatOwner",
          "type": "address"
        },
        {
          "indexed": true,
          "name": "seatId",
          "type": "uint256"
        },
        {
          "indexed": false,
          "name": "flightNumber",
          "type": "bytes8"
        },
        {
          "indexed": false,
          "name": "departureDateTime",
          "type": "uint256"
        },
        {
          "indexed": false,
          "name": "origin",
          "type": "bytes3"
        },
        {
          "indexed": false,
          "name": "destination",
          "type": "bytes3"
        },
        {
          "indexed": false,
          "name": "seatNumber",
          "type": "bytes4"
        }
      ],
      "name": "SeatBookedEvent",
      "type": "event"
    },
    {
      "anonymous": false,
      "inputs": [
        {
          "indexed": true,
          "name": "boardingPassId",
          "type": "uint256"
        },
        {
          "indexed": true,
          "name": "boardingPassOwner",
          "type": "address"
        },
        {
          "indexed": true,
          "name": "seatId",
          "type": "uint256"
        },
        {
          "indexed": false,
          "name": "passportScanIpfsHash",
          "type": "bytes"
        },
        {
          "indexed": false,
          "name": "flightNumber",
          "type": "bytes8"
        },
        {
          "indexed": false,
          "name": "departureDateTime",
          "type": "uint256"
        },
        {
          "indexed": false,
          "name": "origin",
          "type": "bytes3"
        },
        {
          "indexed": false,
          "name": "destination",
          "type": "bytes3"
        },
        {
          "indexed": false,
          "name": "seatNumber",
          "type": "bytes4"
        }
      ],
      "name": "BoardingPassGeneratedEvent",
      "type": "event"
    },
    {
      "anonymous": false,
      "inputs": [],
      "name": "Pause",
      "type": "event"
    },
    {
      "anonymous": false,
      "inputs": [],
      "name": "Unpause",
      "type": "event"
    },
    {
      "anonymous": false,
      "inputs": [
        {
          "indexed": true,
          "name": "previousOwner",
          "type": "address"
        }
      ],
      "name": "OwnershipRenounced",
      "type": "event"
    },
    {
      "anonymous": false,
      "inputs": [
        {
          "indexed": true,
          "name": "previousOwner",
          "type": "address"
        },
        {
          "indexed": true,
          "name": "newOwner",
          "type": "address"
        }
      ],
      "name": "OwnershipTransferred",
      "type": "event"
    },
    {
      "anonymous": false,
      "inputs": [
        {
          "indexed": true,
          "name": "_from",
          "type": "address"
        },
        {
          "indexed": true,
          "name": "_to",
          "type": "address"
        },
        {
          "indexed": true,
          "name": "_tokenId",
          "type": "uint256"
        }
      ],
      "name": "Transfer",
      "type": "event"
    },
    {
      "anonymous": false,
      "inputs": [
        {
          "indexed": true,
          "name": "_owner",
          "type": "address"
        },
        {
          "indexed": true,
          "name": "_approved",
          "type": "address"
        },
        {
          "indexed": true,
          "name": "_tokenId",
          "type": "uint256"
        }
      ],
      "name": "Approval",
      "type": "event"
    },
    {
      "anonymous": false,
      "inputs": [
        {
          "indexed": true,
          "name": "_owner",
          "type": "address"
        },
        {
          "indexed": true,
          "name": "_operator",
          "type": "address"
        },
        {
          "indexed": false,
          "name": "_approved",
          "type": "bool"
        }
      ],
      "name": "ApprovalForAll",
      "type": "event"
    },
    {
      "constant": true,
      "inputs": [
        {
          "name": "_seatId",
          "type": "uint256"
        }
      ],
      "name": "getBoardingPassForSeat",
      "outputs": [
        {
          "name": "",
          "type": "uint256"
        },
        {
          "name": "",
          "type": "uint256"
        },
        {
          "name": "",
          "type": "bytes32"
        },
        {
          "name": "",
          "type": "bytes"
        }
      ],
      "payable": false,
      "stateMutability": "view",
      "type": "function"
    },
    {
      "constant": true,
      "inputs": [],
      "name": "getActiveAirlines",
      "outputs": [
        {
          "name": "",
          "type": "address[]"
        }
      ],
      "payable": false,
      "stateMutability": "view",
      "type": "function"
    },
    {
      "constant": true,
      "inputs": [
        {
          "name": "_flightNumber",
          "type": "bytes8"
        },
        {
          "name": "_departureDateTime",
          "type": "uint256"
        }
      ],
      "name": "getFlightId",
      "outputs": [
        {
          "name": "",
          "type": "bytes32"
        }
      ],
      "payable": false,
      "stateMutability": "pure",
      "type": "function"
    },
    {
      "constant": true,
      "inputs": [
        {
          "name": "_flightNumber",
          "type": "bytes8"
        },
        {
          "name": "_departureDateTime",
          "type": "uint256"
        },
        {
          "name": "_seatNumber",
          "type": "bytes4"
        }
      ],
      "name": "getSeatId",
      "outputs": [
        {
          "name": "",
          "type": "uint256"
        }
      ],
      "payable": false,
      "stateMutability": "pure",
      "type": "function"
    },
    {
      "constant": true,
      "inputs": [
        {
          "name": "_airlineAddress",
          "type": "address"
        }
      ],
      "name": "getFlightIdsForAirline",
      "outputs": [
        {
          "name": "",
          "type": "bytes32[]"
        }
      ],
      "payable": false,
      "stateMutability": "view",
      "type": "function"
    },
    {
      "constant": true,
      "inputs": [
        {
          "name": "_flightId",
          "type": "bytes32"
        }
      ],
      "name": "getFlight",
      "outputs": [
        {
          "name": "",
          "type": "bytes32"
        },
        {
          "name": "",
          "type": "bytes8"
        },
        {
          "name": "",
          "type": "bytes3"
        },
        {
          "name": "",
          "type": "bytes3"
        },
        {
          "name": "",
          "type": "string"
        },
        {
          "name": "",
          "type": "uint256"
        },
        {
          "name": "",
          "type": "bytes2"
        }
      ],
      "payable": false,
      "stateMutability": "view",
      "type": "function"
    },
    {
      "constant": true,
      "inputs": [
        {
          "name": "_seatId",
          "type": "uint256"
        }
      ],
      "name": "getSeat",
      "outputs": [
        {
          "name": "",
          "type": "uint256"
        },
        {
          "name": "",
          "type": "bytes4"
        },
        {
          "name": "",
          "type": "uint256"
        },
        {
          "name": "",
          "type": "uint8"
        },
        {
          "name": "",
          "type": "uint8"
        },
        {
          "name": "",
          "type": "bool"
        },
        {
          "name": "",
          "type": "bool"
        }
      ],
      "payable": false,
      "stateMutability": "view",
      "type": "function"
    },
    {
      "constant": true,
      "inputs": [
        {
          "name": "_flightId",
          "type": "bytes32"
        }
      ],
      "name": "getSeatsForFlight",
      "outputs": [
        {
          "name": "",
          "type": "uint256[]"
        }
      ],
      "payable": false,
      "stateMutability": "view",
      "type": "function"
    },
    {
      "constant": false,
      "inputs": [
        {
          "name": "_flightNumber",
          "type": "bytes8"
        },
        {
          "name": "_origin",
          "type": "bytes3"
        },
        {
          "name": "_destination",
          "type": "bytes3"
        },
        {
          "name": "_departureDateTime",
          "type": "uint256"
        },
        {
          "name": "_airlineCode",
          "type": "bytes2"
        },
        {
          "name": "_airlineName",
          "type": "string"
        },
        {
          "name": "_airlineAddress",
          "type": "address"
        },
        {
          "name": "_signature",
          "type": "bytes"
        }
      ],
      "name": "createFlight",
      "outputs": [
        {
          "name": "",
          "type": "bytes32"
        }
      ],
      "payable": false,
      "stateMutability": "nonpayable",
      "type": "function"
    },
    {
      "constant": false,
      "inputs": [
        {
          "name": "_flightNumber",
          "type": "bytes8"
        },
        {
          "name": "_departureDateTime",
          "type": "uint256"
        },
        {
          "name": "_seatNumbers",
          "type": "bytes4[]"
        },
        {
          "name": "_seatPrices",
          "type": "uint256[]"
        },
        {
          "name": "cabin",
          "type": "uint8"
        }
      ],
      "name": "addSeatInventoryToFlightCabin",
      "outputs": [],
      "payable": false,
      "stateMutability": "nonpayable",
      "type": "function"
    },
    {
      "constant": false,
      "inputs": [
        {
          "name": "_seatId",
          "type": "uint256"
        }
      ],
      "name": "bookSeat",
      "outputs": [
        {
          "name": "",
          "type": "uint256"
        }
      ],
      "payable": true,
      "stateMutability": "payable",
      "type": "function"
    },
    {
      "constant": false,
      "inputs": [
        {
          "name": "_seatId",
          "type": "uint256"
        },
        {
          "name": "_barcodeString",
          "type": "bytes32"
        },
        {
          "name": "_passportScanIpfsHash",
          "type": "bytes"
        }
      ],
      "name": "checkinPassenger",
      "outputs": [
        {
          "name": "",
          "type": "uint256"
        }
      ],
      "payable": false,
      "stateMutability": "nonpayable",
      "type": "function"
    },
    {
      "constant": true,
      "inputs": [
        {
          "name": "_seatId",
          "type": "uint256"
        }
      ],
      "name": "getBarcodeStringParametersForBoardingPass",
      "outputs": [
        {
          "name": "",
          "type": "bytes8"
        },
        {
          "name": "",
          "type": "bytes3"
        },
        {
          "name": "",
          "type": "bytes3"
        },
        {
          "name": "",
          "type": "uint256"
        },
        {
          "name": "",
          "type": "bytes4"
        }
      ],
      "payable": false,
      "stateMutability": "view",
      "type": "function"
    },
    {
      "constant": false,
      "inputs": [
        {
          "name": "_seatId",
          "type": "uint256"
        }
      ],
      "name": "cancelSeatBookingAirlineInitiated",
      "outputs": [
        {
          "name": "",
          "type": "uint256"
        }
      ],
      "payable": true,
      "stateMutability": "payable",
      "type": "function"
    },
    {
      "constant": false,
      "inputs": [
        {
          "name": "_seatId",
          "type": "uint256"
        }
      ],
      "name": "cancelSeatBookingPassengerInitiated",
      "outputs": [
        {
          "name": "",
          "type": "uint256"
        }
      ],
      "payable": false,
      "stateMutability": "nonpayable",
      "type": "function"
    },
    {
      "constant": false,
      "inputs": [],
      "name": "kill",
      "outputs": [],
      "payable": false,
      "stateMutability": "nonpayable",
      "type": "function"
    }
  ],
  "bytecode": "0x6080604052600c805460a060020a60ff02191690553480156200002157600080fd5b506000806000806060806040805190810160405280601781526020017f466c696768742053656174204469737472696275746f720000000000000000008152506040805190810160405280600b81526020017f464c494748542d53454154000000000000000000000000000000000000000000815250620000d46301ffc9a77c01000000000000000000000000000000000000000000000000000000000262000c6c640100000000026401000000009004565b620001087f80ac58cd0000000000000000000000000000000000000000000000000000000064010000000062000c6c810204565b6200013c7f4f558e790000000000000000000000000000000000000000000000000000000064010000000062000c6c810204565b815162000151906005906020850190620017cd565b50805162000167906006906020840190620017cd565b506200019c7f780e9d630000000000000000000000000000000000000000000000000000000064010000000062000c6c810204565b620001d07f5b5e139f0000000000000000000000000000000000000000000000000000000064010000000062000c6c810204565b5050600c8054600160a060020a031916331790557f42413132350000000000000000000000000000000000000000000000000000009550635c03866d945062000223868664010000000062000cd9810204565b604080517f19457468657265756d205369676e6564204d6573736167653a0a333200000000602080830191909152603c80830185905283518084039091018152605c909201928390528151939750909282918401908083835b602083106200029d5780518252601f1990920191602091820191016200027c565b51815160209384036101000a600019018019909216911617905260408051929094018290038220600160c060020a03198d1683529082018b90528184018a90526060820181905292519297507f8f2e1a1a0dec071155094e6526c71270990436763f43a39ccfb219288c3ceb2f945060809083900301925050a1620004b76200036a6040805190810160405280600581526020017f424131323500000000000000000000000000000000000000000000000000000081525062000d96640100000000026401000000009004565b60408051808201909152600381527f4c485200000000000000000000000000000000000000000000000000000000006020820152620003b29064010000000062000d96810204565b60408051808201909152600381527f4a464b00000000000000000000000000000000000000000000000000000000006020820152620003fa9064010000000062000d96810204565b635c03866d6200044e6040805190810160405280600281526020017f424100000000000000000000000000000000000000000000000000000000000081525062000d96640100000000026401000000009004565b604080518082018252600f81527f427269746973682041697277617973000000000000000000000000000000000060208083019190915282516000815290810190925290736885f585cc82a6856534d86c71d87dc3525feeb29064010000000062000dbc810204565b50604080516003808252608082019092529060208201606080388339505060408051600380825260808201909252929450905060208201606080388339019050509050620005496040805190810160405280600281526020017f314100000000000000000000000000000000000000000000000000000000000081525062000d96640100000000026401000000009004565b8260008151811015156200055957fe5b7fffffffff00000000000000000000000000000000000000000000000000000000909216602092830290910182015260408051808201909152600281527f314200000000000000000000000000000000000000000000000000000000000091810191909152620005d29064010000000062000d96810204565b826001815181101515620005e257fe5b7fffffffff00000000000000000000000000000000000000000000000000000000909216602092830290910182015260408051808201909152600281527f3143000000000000000000000000000000000000000000000000000000000000918101919091526200065b9064010000000062000d96810204565b8260028151811015156200066b57fe5b7fffffffff000000000000000000000000000000000000000000000000000000009092166020928302909101909101528051678ac7230489e800009082906000908110620006b557fe5b602090810290910101528051677ce66c50e28400009082906001908110620006d957fe5b602090810290910101528051676f05b59d3b2000009082906002908110620006fd57fe5b9060200190602002018181525050620007766200075e6040805190810160405280600581526020017f424131323500000000000000000000000000000000000000000000000000000081525062000d96640100000000026401000000009004565b635c03866d8484600264010000000062001263810204565b60408051808201909152600281527f32410000000000000000000000000000000000000000000000000000000000006020820152620007be9064010000000062000d96810204565b826000815181101515620007ce57fe5b7fffffffff00000000000000000000000000000000000000000000000000000000909216602092830290910182015260408051808201909152600281527f324200000000000000000000000000000000000000000000000000000000000091810191909152620008479064010000000062000d96810204565b8260018151811015156200085757fe5b7fffffffff00000000000000000000000000000000000000000000000000000000909216602092830290910182015260408051808201909152600281527f324300000000000000000000000000000000000000000000000000000000000091810191909152620008d09064010000000062000d96810204565b826002815181101515620008e057fe5b7fffffffff0000000000000000000000000000000000000000000000000000000090921660209283029091019091015280516753444835ec58000090829060009081106200092a57fe5b602090810290910101528051674563918244f4000090829060019081106200094e57fe5b602090810290910101528051673782dace9d90000090829060029081106200097257fe5b9060200190602002018181525050620009eb620009d36040805190810160405280600581526020017f424131323500000000000000000000000000000000000000000000000000000081525062000d96640100000000026401000000009004565b635c03866d8484600164010000000062001263810204565b60408051808201909152600281527f3341000000000000000000000000000000000000000000000000000000000000602082015262000a339064010000000062000d96810204565b82600081518110151562000a4357fe5b7fffffffff00000000000000000000000000000000000000000000000000000000909216602092830290910182015260408051808201909152600281527f33420000000000000000000000000000000000000000000000000000000000009181019190915262000abc9064010000000062000d96810204565b82600181518110151562000acc57fe5b7fffffffff00000000000000000000000000000000000000000000000000000000909216602092830290910182015260408051808201909152600281527f33430000000000000000000000000000000000000000000000000000000000009181019190915262000b459064010000000062000d96810204565b82600281518110151562000b5557fe5b7fffffffff0000000000000000000000000000000000000000000000000000000090921660209283029091019091015280516729a2241af62c0000908290600090811062000b9f57fe5b602090810290910101528051671bc16d674ec80000908290600190811062000bc357fe5b602090810290910101528051670de0b6b3a7640000908290600290811062000be757fe5b906020019060200201818152505062000c6062000c486040805190810160405280600581526020017f424131323500000000000000000000000000000000000000000000000000000081525062000d96640100000000026401000000009004565b635c03866d8484600064010000000062001263810204565b5050505050506200190e565b7fffffffff00000000000000000000000000000000000000000000000000000000808216141562000c9c57600080fd5b7fffffffff00000000000000000000000000000000000000000000000000000000166000908152602081905260409020805460ff19166001179055565b60408051600160c060020a031984166020808301919091527f5f0000000000000000000000000000000000000000000000000000000000000060288301526029808301859052835180840390910181526049909201928390528151600093918291908401908083835b6020831062000d635780518252601f19909201916020918201910162000d42565b5181516020939093036101000a600019018019909116921691909117905260405192018290039091209695505050505050565b80516000908290151562000dae576000915062000db6565b602083015191505b50919050565b600080600062000dcb62001852565b600c5474010000000000000000000000000000000000000000900460ff161562000df457600080fd5b62000e098c8a64010000000062000cd9810204565b604080517f19457468657265756d205369676e6564204d6573736167653a0a333200000000602080830191909152603c80830185905283518084039091018152605c909201928390528151939650909282918401908083835b6020831062000e835780518252601f19909201916020918201910162000e62565b5181516020939093036101000a60001901801990911692169190911790526040519201829003909120600c54909550600160a060020a03163314925062000f6191505057600160a060020a03861662000eeb838764010000000062002a34620013d382021704565b600160a060020a03161462000f6157604080517f08c379a000000000000000000000000000000000000000000000000000000000815260206004820152601160248201527f496e76616c6964207369676e6174757265000000000000000000000000000000604482015290519081900360640190fd5b42891162000fd057604080517f08c379a000000000000000000000000000000000000000000000000000000000815260206004820152601360248201527f466c696768742068617320646570617274656400000000000000000000000000604482015290519081900360640190fd5b60606040519081016040528089600160f060020a031916815260200188815260200187600160a060020a0316815250905060e060405190810160405280846000191681526020018d600160c060020a03191681526020018c600160e860020a03191681526020018b600160e860020a03191681526020018281526020018a815260200160006040519080825280602002602001820160405280156200107f578160200160208202803883390190505b5090526000848152600f6020908152604091829020835181558382015160018201805494860151606087015167ffffffffffffffff19909616780100000000000000000000000000000000000000000000000090930492909217604060020a62ffffff021916680100000000000000007d010000000000000000000000000000000000000000000000000000000000938490040217605860020a62ffffff0219166b0100000000000000000000009290950491909102939093179092556080830151805160028401805461ffff19167e0100000000000000000000000000000000000000000000000000000000000090920491909117815581830151805192939192620011939260038701920190620017cd565b506040919091015160029091018054600160a060020a031916600160a060020a0390921691909117905560a0820151600582015560c08201518051620011e491600684019160209091019062001874565b5050600d805460018082019092557fd7b6990105719101dabeb77144f2a3385c8033acd3af97e9423a695e81ad1eb5018054600160a060020a031916600160a060020a039990991698891790556000978852600e60209081526040892080549283018155895290972090960183905550909a9950505050505050505050565b6000808686336200127e8383640100000000620014af810204565b600160a060020a031614620012f457604080517f08c379a000000000000000000000000000000000000000000000000000000000815260206004820152601d60248201527f4d757374206265206169726c696e65206f662074686520666c69676874000000604482015290519081900360640190fd5b600c5474010000000000000000000000000000000000000000900460ff16156200131d57600080fd5b62001332898964010000000062000cd9810204565b9350600092505b8651831015620013c8576000848152600f602052604090208751600690910190620013a8908b908b908b90889081106200136f57fe5b906020019060200201518a888151811015156200138857fe5b906020019060200201518a620014ed640100000000026401000000009004565b815460018181018455600093845260209093200155929092019162001339565b505050505050505050565b60008060008084516041141515620013ef5760009350620014a6565b50505060208201516040830151606084015160001a601b60ff821610156200141557601b015b8060ff16601b141580156200142e57508060ff16601c14155b156200143e5760009350620014a6565b60408051600080825260208083018085528a905260ff8516838501526060830187905260808301869052925160019360a0808501949193601f19840193928390039091019190865af115801562001499573d6000803e3d6000fd5b5050506020604051035193505b50505092915050565b6000600f81620014c9858564010000000062000cd9810204565b8152602081019190915260400160002060040154600160a060020a03169392505050565b600080620014fa620018b1565b62001510888888640100000000620016e1810204565b6040805160e0810182527fffffffff0000000000000000000000000000000000000000000000000000000089168152602081018890529193508101600081526020018560028111156200155f57fe5b8152602001620015798a8a64010000000062000cd9810204565b8152600060208083018290526001604093840181905286835260108252918390208451815463ffffffff19167c010000000000000000000000000000000000000000000000000000000090910417815590840151818301559183015160028301805494955085949192909160ff1916908381811115620015f557fe5b021790555060608201518160020160016101000a81548160ff021916908360028111156200161f57fe5b02179055506080820151600382015560a08201516004909101805460c09093015115156101000261ff001992151560ff1990941693909317919091169190911790557f21a8d89e1f3c6e3eaa19284633750b71cf1081477114f3e2a30d8052f74b9db062001697898964010000000062000cd9810204565b604080519182527fffffffff0000000000000000000000000000000000000000000000000000000089166020830152818101859052519081900360600190a1509695505050505050565b60408051600160c060020a031985166020808301919091527f5f00000000000000000000000000000000000000000000000000000000000000602883018190526029830186905260498301527fffffffff000000000000000000000000000000000000000000000000000000008416604a8301528251602e818403018152604e909201928390528151600093918291908401908083835b60208310620017995780518252601f19909201916020918201910162001778565b5181516020939093036101000a60001901801990911692169190911790526040519201829003909120979650505050505050565b828054600181600116156101000203166002900490600052602060002090601f016020900481019282601f106200181057805160ff191683800117855562001840565b8280016001018555821562001840579182015b828111156200184057825182559160200191906001019062001823565b506200184e929150620018ee565b5090565b6040805160608181018352600080835260208301919091529181019190915290565b8280548282559060005260206000209081019282156200184057916020028201828111156200184057825182559160200191906001019062001823565b6040805160e08101825260008082526020820181905290918201908152602001600081526000602082018190526040820181905260609091015290565b6200190b91905b808211156200184e5760008155600101620018f5565b90565b613a8c806200191e6000396000f3006080604052600436106101df5763ffffffff60e060020a60003504166301ffc9a781146101e457806306fdde031461021a578063081812fc146102a4578063095ea7b3146102d857806317b58e8c146102fe57806318160ddd1461038157806319fa8f50146103a857806323a2e7d7146103da57806323b872dd146104ce5780632918b4a4146104f85780632f745c59146105035780633f4ba83a146105275780633fbc5e021461053c57806341c0e1b51461059c57806342842e0e146105b157806344f37dc4146105db5780634f558e79146106435780634f6ccce71461065b5780635c975abb14610673578063615ea74c146106885780636352211e146107355780636dc4c03c1461074d57806370a082311461076e578063715018a61461078f5780637d29b21c146107a45780638456cb59146107bc57806384e9f7c9146107d15780638da5cb5b146107dc57806395d89b41146107f157806396261098146108065780639a40e9c21461081e578063a22cb46514610882578063b88d4fde146108a8578063b9443eca14610917578063c87b56dd14610949578063cac8f29214610961578063e985e9c514610a5e578063f19a341814610a85578063f2fde38b14610aaa578063f5818b3c14610acb578063fd4d02a414610b71575b600080fd5b3480156101f057600080fd5b50610206600160e060020a031960043516610b86565b604080519115158252519081900360200190f35b34801561022657600080fd5b5061022f610ba5565b6040805160208082528351818301528351919283929083019185019080838360005b83811015610269578181015183820152602001610251565b50505050905090810190601f1680156102965780820380516001836020036101000a031916815260200191505b509250505060405180910390f35b3480156102b057600080fd5b506102bc600435610c3c565b60408051600160a060020a039092168252519081900360200190f35b3480156102e457600080fd5b506102fc600160a060020a0360043516602435610c57565b005b34801561030a57600080fd5b50610316600435610d00565b60408051888152600160e060020a0319881660208201529081018690526060810185600181111561034357fe5b60ff16815260200184600281111561035757fe5b60ff1681529215156020840152501515604080830191909152519081900360600195509350505050f35b34801561038d57600080fd5b50610396610d49565b60408051918252519081900360200190f35b3480156103b457600080fd5b506103bd610d4f565b60408051600160e060020a03199092168252519081900360200190f35b3480156103e657600080fd5b50604080516020600460a43581810135601f8101849004840285018401909552848452610396948235600160c060020a0319169460248035600160e860020a03199081169660443590911695606435956084357fffff00000000000000000000000000000000000000000000000000000000000016953695929460c494920191819084018382808284375050604080516020601f818a01358b0180359182018390048302840183018552818452989b600160a060020a038b35169b909a909994019750919550918201935091508190840183828082843750949750610d739650505050505050565b3480156104da57600080fd5b506102fc600160a060020a03600435811690602435166044356111d9565b61039660043561127e565b34801561050f57600080fd5b50610396600160a060020a03600435166024356114a9565b34801561053357600080fd5b506102fc6114f6565b34801561054857600080fd5b50604080516020600460443581810135601f810184900484028501840190955284845261039694823594602480359536959460649492019190819084018382808284375094975061156e9650505050505050565b3480156105a857600080fd5b506102fc61195b565b3480156105bd57600080fd5b506102fc600160a060020a036004358116906024351660443561197e565b3480156105e757600080fd5b506105f36004356119b6565b60408051602080825283518183015283519192839290830191858101910280838360005b8381101561062f578181015183820152602001610617565b505050509050019250505060405180910390f35b34801561064f57600080fd5b50610206600435611a1b565b34801561066757600080fd5b50610396600435611a38565b34801561067f57600080fd5b50610206611a6d565b34801561069457600080fd5b506106a0600435611a7d565b60405180858152602001848152602001836000191660001916815260200180602001828103825283818151815260200191508051906020019080838360005b838110156106f75781810151838201526020016106df565b50505050905090810190601f1680156107245780820380516001836020036101000a031916815260200191505b509550505050505060405180910390f35b34801561074157600080fd5b506102bc600435611b3d565b34801561075957600080fd5b506105f3600160a060020a0360043516611b67565b34801561077a57600080fd5b50610396600160a060020a0360043516611bd3565b34801561079b57600080fd5b506102fc611c06565b3480156107b057600080fd5b50610396600435611c67565b3480156107c857600080fd5b506102fc611ed7565b610396600435611f54565b3480156107e857600080fd5b506102bc612359565b3480156107fd57600080fd5b5061022f612368565b34801561081257600080fd5b506102bc6004356123c9565b34801561082a57600080fd5b506108366004356123f1565b60408051600160c060020a03199096168652600160e860020a0319948516602087015292909316848301526060840152600160e060020a03199091166080830152519081900360a00190f35b34801561088e57600080fd5b506102fc600160a060020a03600435166024351515612444565b3480156108b457600080fd5b50604080516020601f6064356004818101359283018490048402850184019095528184526102fc94600160a060020a0381358116956024803590921695604435953695608494019181908401838280828437509497506124c89650505050505050565b34801561092357600080fd5b50610396600160c060020a031960043516602435600160e060020a031960443516612507565b34801561095557600080fd5b5061022f6004356125d9565b34801561096d57600080fd5b50610979600435612684565b60408051888152600160c060020a03198816602080830191909152600160e860020a031980891693830193909352918616606082015260a081018490527fffff000000000000000000000000000000000000000000000000000000000000831660c082015260e06080820181815286519183019190915285519192909161010084019187019080838360005b83811015610a1d578181015183820152602001610a05565b50505050905090810190601f168015610a4a5780820380516001836020036101000a031916815260200191505b509850505050505050505060405180910390f35b348015610a6a57600080fd5b50610206600160a060020a03600435811690602435166127ac565b348015610a9157600080fd5b50610396600160c060020a0319600435166024356127da565b348015610ab657600080fd5b506102fc600160a060020a0360043516612895565b348015610ad757600080fd5b5060408051602060046044358181013583810280860185019096528085526102fc958335600160c060020a031916956024803596369695606495939492019291829185019084908082843750506040805187358901803560208181028481018201909552818452989b9a9989019892975090820195509350839250850190849080828437509497505050923560ff1693506128b892505050565b348015610b7d57600080fd5b506105f36129d3565b600160e060020a03191660009081526020819052604090205460ff1690565b60058054604080516020601f6002600019610100600188161502019095169490940493840181900481028201810190925282815260609390929091830182828015610c315780601f10610c0657610100808354040283529160200191610c31565b820191906000526020600020905b815481529060010190602001808311610c1457829003601f168201915b505050505090505b90565b600090815260026020526040902054600160a060020a031690565b6000610c6282611b3d565b9050600160a060020a038381169082161415610c7d57600080fd5b33600160a060020a0382161480610c995750610c9981336127ac565b1515610ca457600080fd5b6000828152600260205260408082208054600160a060020a031916600160a060020a0387811691821790925591518593918516917f8c5be1e5ebec7d5bd14f71427d1e84f3dd0314c0f7b2291e5b200ac8c7c3b92591a4505050565b6000818152601060205260409020805460018201546002830154600490930154939460e060020a90920293909260ff808216936101009283900482169382811693900490911690565b60095490565b7f01ffc9a70000000000000000000000000000000000000000000000000000000081565b6000806000610d80613845565b600c5460a060020a900460ff1615610d9757600080fd5b610da18c8a6127da565b604080517f19457468657265756d205369676e6564204d6573736167653a0a333200000000602080830191909152603c80830185905283518084039091018152605c909201928390528151939650909282918401908083835b60208310610e195780518252601f199092019160209182019101610dfa565b5181516020939093036101000a60001901801990911692169190911790526040519201829003909120600c54909550600160a060020a031633149250610ece9150505785600160a060020a0316610e708387612a34565b600160a060020a031614610ece576040805160e560020a62461bcd02815260206004820152601160248201527f496e76616c6964207369676e6174757265000000000000000000000000000000604482015290519081900360640190fd5b428911610f25576040805160e560020a62461bcd02815260206004820152601360248201527f466c696768742068617320646570617274656400000000000000000000000000604482015290519081900360640190fd5b606060405190810160405280897dffffffffffffffffffffffffffffffffffffffffffffffffffffffffffff1916815260200188815260200187600160a060020a0316815250905060e060405190810160405280846000191681526020018d77ffffffffffffffffffffffffffffffffffffffffffffffff191681526020018c7cffffffffffffffffffffffffffffffffffffffffffffffffffffffffff191681526020018b7cffffffffffffffffffffffffffffffffffffffffffffffffffffffffff191681526020018281526020018a81526020016000604051908082528060200260200182016040528015611027578160200160208202803883390190505b5090526000848152600f6020908152604091829020835181558382015160018201805494860151606087015167ffffffffffffffff199096167801000000000000000000000000000000000000000000000000909304929092176affffff000000000000000019166801000000000000000060e860020a9384900402176dffffff000000000000000000000019166b0100000000000000000000009290950491909102939093179092556080830151805160028401805461ffff191660f060020a9092049190911781558183015180519293919261110b9260038701920190613867565b506040919091015160029091018054600160a060020a031916600160a060020a0390921691909117905560a0820151600582015560c0820151805161115a9160068401916020909101906138e5565b5050600d805460018082019092557fd7b6990105719101dabeb77144f2a3385c8033acd3af97e9423a695e81ad1eb5018054600160a060020a031916600160a060020a039990991698891790556000978852600e60209081526040892080549283018155895290972090960183905550909a9950505050505050505050565b806111e43382612b09565b15156111ef57600080fd5b600160a060020a038416151561120457600080fd5b600160a060020a038316151561121957600080fd5b6112238483612b68565b61122d8483612bcc565b6112378383612d05565b8183600160a060020a031685600160a060020a03167fddf252ad1be2c89b69c2b068fc378daa952ba7f163c4a11628f55a4df523b3ef60405160405180910390a450505050565b6000813361128b82612d4e565b600160a060020a0316146112e9576040805160e560020a62461bcd02815260206004820152601d60248201527f4d757374206265206169726c696e65206f662074686520666c69676874000000604482015290519081900360640190fd5b600c5460a060020a900460ff161561130057600080fd5b600160008481526010602052604090206002015460ff16600181111561132257fe5b14611377576040805160e560020a62461bcd02815260206004820152601560248201527f53656174206d757374206265206f636375706965640000000000000000000000604482015290519081900360640190fd5b600083815260106020526040902060010154341461142c576040805160e560020a62461bcd028152602060048201526044602482018190527f4169726c696e65206d7573742073656e6420636f727265637420726566756e64908201527f20616d6f756e7420666f722070617373656e67657220696e207472616e73616360648201527f74696f6e00000000000000000000000000000000000000000000000000000000608482015290519081900360a40190fd5b61144761143884611b3d565b61144185612d4e565b8561197e565b6000838152601060205260409020600201805460ff1916905561146983611b3d565b600160a060020a03166108fc349081150290604051600060405180830381858888f193505050501580156114a1573d6000803e3d6000fd5b509192915050565b60006114b483611bd3565b82106114bf57600080fd5b600160a060020a03831660009081526007602052604090208054839081106114e357fe5b9060005260206000200154905092915050565b600c54600160a060020a0316331461150d57600080fd5b600c5460a060020a900460ff16151561152557600080fd5b600c805474ff0000000000000000000000000000000000000000191690556040517f7805862f689e2f13df9f062ff482ad3ad112aca9e0847911ed832e158c525b3390600090a1565b600061157861391f565b6000611582613964565b863361158d82611b3d565b600160a060020a031614611611576040805160e560020a62461bcd02815260206004820152602360248201527f4d7573742062652070617373656e6765722077686f206f776e7320746865207360448201527f6561740000000000000000000000000000000000000000000000000000000000606482015290519081900360840190fd5b600c5460a060020a900460ff161561162857600080fd5b61163188612d7c565b93504261163d89612d7c565b60a00151116116bc576040805160e560020a62461bcd02815260206004820152602960248201527f546f6f206c61746520746f20636865636b20696e2c20666c696768742068617360448201527f2064657061727465640000000000000000000000000000000000000000000000606482015290519081900360840190fd5b600160008981526010602052604090206002015460ff1660018111156116de57fe5b14611733576040805160e560020a62461bcd02815260206004820152601560248201527f53656174206d757374206265206f636375706965640000000000000000000000604482015290519081900360640190fd5b60008881526010602052604090206004015460ff161561179d576040805160e560020a62461bcd02815260206004820152601a60248201527f5365617420697320616c726561647920636865636b656420696e000000000000604482015290519081900360640190fd5b8686604051602001808360001916600019168152602001807f5f0000000000000000000000000000000000000000000000000000000000000081525060010182805190602001908083835b602083106118075780518252601f1990920191602091820191016117e8565b6001836020036101000a038019825116818451168082178552505050505050905001925050506040516020818303038152906040526040518082805190602001908083835b6020831061186b5780518252601f19909201916020918201910161184c565b6001836020036101000a03801982511681845116808217855250505050505090500191505060405180910390206001900492506118a83384612f6f565b6118b23389612fbe565b6118cc6118be89612d7c565b608001516040015184610c57565b6040805160808101825284815260208082018b81528284018b8152606084018b815260008e815260118552959095208451815591516001830155516002820155925180519295508593926119269260038501920190613867565b5050506000888152601060205260409020600401805460ff1916600117905561194f82856130b8565b50909695505050505050565b600c54600160a060020a031633141561197c57600c54600160a060020a0316ff5b565b806119893382612b09565b151561199457600080fd5b6119b084848460206040519081016040528060008152506124c8565b50505050565b6000818152600f6020908152604091829020600601805483518184028101840190945280845260609392830182828015611a0f57602002820191906000526020600020905b8154815260200190600101908083116119fb575b50505050509050919050565b600090815260016020526040902054600160a060020a0316151590565b6000611a42610d49565b8210611a4d57600080fd5b6009805483908110611a5b57fe5b90600052602060002001549050919050565b600c5460a060020a900460ff1681565b600081815260116020908152604080832080546001808301546002808501546003909501805487519481161561010002600019011691909104601f810188900488028401880190965285835287968796606096939491839190830182828015611b275780601f10611afc57610100808354040283529160200191611b27565b820191906000526020600020905b815481529060010190602001808311611b0a57829003601f168201915b5050505050905093509350935093509193509193565b600081815260016020526040812054600160a060020a0316801515611b6157600080fd5b92915050565b600160a060020a0381166000908152600e6020908152604091829020805483518184028101840190945280845260609392830182828015611a0f57602002820191906000526020600020905b81548152600190910190602001808311611bb35750505050509050919050565b6000600160a060020a0382161515611bea57600080fd5b50600160a060020a031660009081526003602052604090205490565b600c54600160a060020a03163314611c1d57600080fd5b600c54604051600160a060020a03909116907ff8df31144d9c2f0f6b59d69b8b98abd5459d07f2742c4df920b25aae33c6482090600090a2600c8054600160a060020a0319169055565b6000611c7161398a565b8233611c7c82611b3d565b600160a060020a031614611d00576040805160e560020a62461bcd02815260206004820152602360248201527f4d7573742062652070617373656e6765722077686f206f776e7320746865207360448201527f6561740000000000000000000000000000000000000000000000000000000000606482015290519081900360840190fd5b600c5460a060020a900460ff1615611d1757600080fd5b600160008581526010602052604090206002015460ff166001811115611d3957fe5b14611d8e576040805160e560020a62461bcd02815260206004820152601560248201527f53656174206d757374206265206f636375706965640000000000000000000000604482015290519081900360640190fd5b60008481526010602052604090206004015460ff1615611e1e576040805160e560020a62461bcd02815260206004820152603660248201527f596f752063616e6e6f742063616e63656c206120626f6f6b696e67206166746560448201527f7220636865636b696e20697320636f6d706c6574656400000000000000000000606482015290519081900360840190fd5b611e3133611e2b86612d4e565b8661197e565b600084815260106020818152604080842060028101805460ff191690558151808301909252338252888552928252600190920154908201529250601290611e7786612d4e565b600160a060020a039081168252602080830193909352604090910160009081208054600180820183559183529184902086516002909302018054600160a060020a0319169290931691909117825593909101519201919091555090919050565b600c54600160a060020a03163314611eee57600080fd5b600c5460a060020a900460ff1615611f0557600080fd5b600c805474ff0000000000000000000000000000000000000000191660a060020a1790556040517f6985a02210a168e66602d3235cb6db0e70f92b3ba4d376a33c0f3d9434bff62590600090a1565b600c54600090819060a060020a900460ff1615611f7057600080fd5b6000838152601060209081526040808320600301548352600f909152902060050154421061200e576040805160e560020a62461bcd02815260206004820152602d60248201527f53656174206e6f206c6f6e67657220617661696c61626c652c20666c6967687460448201527f2068617320646570617274656400000000000000000000000000000000000000606482015290519081900360840190fd5b60008381526010602052604081206002015460ff16600181111561202e57fe5b146120a9576040805160e560020a62461bcd02815260206004820152602160248201527f53656174206d757374206e6f7420626520616c7265616479206f63637570696560448201527f6400000000000000000000000000000000000000000000000000000000000000606482015290519081900360840190fd5b6000838152601060205260409020600101543414612137576040805160e560020a62461bcd02815260206004820152603060248201527f50617373656e676572206d7573742070617920616d6f756e7420657175616c2060448201527f746f207072696365206f66207365617400000000000000000000000000000000606482015290519081900360840190fd5b61214083612d4e565b905061214b83611a1b565b1561221d5780600160a060020a031661216384611b3d565b600160a060020a03161461220d576040805160e560020a62461bcd02815260206004820152604b60248201527f4572726f722c2063616e6e6f7420626f6f6b20736561742c207365617420616c60448201527f7265616479206578697374732062757420646f6573206e6f742062656c6f6e6760648201527f20746f206169726c696e65000000000000000000000000000000000000000000608482015290519081900360a40190fd5b61221881338561197e565b612239565b6122273384612f6f565b61223983612234856131da565b613298565b6122438184610c57565b604051600160a060020a038216903480156108fc02916000818181858888f19350505050158015612278573d6000803e3d6000fd5b506000838152601060205260409020600201805460ff1916600117905582337f574cfc3362614e410b85e27150bb0ba320bc271028d35d0c042db3f5d99c81726122c183612d7c565b602001516122ce87612d7c565b60a001516122db88612d7c565b604001516122e889612d7c565b60609081015160008b815260106020908152604091829020548251600160c060020a0319909816885290870195909552600160e860020a031993841686820152921690840152600160e060020a031960e060020a909202919091166080830152519081900360a00190a35090919050565b600c54600160a060020a031681565b60068054604080516020601f6002600019610100600188161502019095169490940493840181900481028201810190925282815260609390929091830182828015610c315780601f10610c0657610100808354040283529160200191610c31565b600d8054829081106123d757fe5b600091825260209091200154600160a060020a0316905081565b600080600080600061240161391f565b61240a87612d7c565b602081810151604080840151606085015160a09095015160009c8d5260109094529a2054909a92985090965060e060020a02945092505050565b600160a060020a03821633141561245a57600080fd5b336000818152600460209081526040808320600160a060020a03871680855290835292819020805460ff1916861515908117909155815190815290519293927f17307eab39ab6107e8899845ad3d59bd9653f200f220920489ca2b5937696c31929181900390910190a35050565b816124d33382612b09565b15156124de57600080fd5b6124e98585856111d9565b6124f5858585856132d0565b151561250057600080fd5b5050505050565b60408051600160c060020a031985166020808301919091527f5f0000000000000000000000000000000000000000000000000000000000000060288301819052602983018690526049830152600160e060020a03198416604a8301528251602e818403018152604e909201928390528151600093918291908401908083835b602083106125a55780518252601f199092019160209182019101612586565b5181516020939093036101000a60001901801990911692169190911790526040519201829003909120979650505050505050565b60606125e482611a1b565b15156125ef57600080fd5b6000828152600b602090815260409182902080548351601f600260001961010060018616150201909316929092049182018490048402810184019094528084529091830182828015611a0f5780601f1061265757610100808354040283529160200191611a0f565b820191906000526020600020905b8154815290600101906020018083116126655750939695505050505050565b6000818152600f6020908152604080832080546001808301546005840154600280860154600390960180548851601f96821615610100026000190190911692909204948501899004890282018901909752838152889788978897606097899788979196780100000000000000000000000000000000000000000000000083029660e860020a6801000000000000000085048102976b010000000000000000000000909504029594919360f060020a90920292909185919083018282801561278c5780601f106127615761010080835404028352916020019161278c565b820191906000526020600020905b81548152906001019060200180831161276f57829003601f168201915b505050505092509650965096509650965096509650919395979092949650565b600160a060020a03918216600090815260046020908152604080832093909416825291909152205460ff1690565b60408051600160c060020a031984166020808301919091527f5f0000000000000000000000000000000000000000000000000000000000000060288301526029808301859052835180840390910181526049909201928390528151600093918291908401908083835b602083106128625780518252601f199092019160209182019101612843565b5181516020939093036101000a600019018019909116921691909117905260405192018290039091209695505050505050565b600c54600160a060020a031633146128ac57600080fd5b6128b58161343d565b50565b6000808686336128c883836134ae565b600160a060020a031614612926576040805160e560020a62461bcd02815260206004820152601d60248201527f4d757374206265206169726c696e65206f662074686520666c69676874000000604482015290519081900360640190fd5b600c5460a060020a900460ff161561293d57600080fd5b61294789896127da565b9350600092505b86518310156129c8576000848152600f6020526040902087516006909101906129a9908b908b908b908890811061298157fe5b906020019060200201518a8881518110151561299957fe5b906020019060200201518a6134e2565b815460018181018455600093845260209093200155929092019161294e565b505050505050505050565b6060600d805480602002602001604051908101604052809291908181526020018280548015610c3157602002820191906000526020600020905b8154600160a060020a03168152600190910190602001808311612a0d575050505050905090565b60008060008084516041141515612a4e5760009350612b00565b50505060208201516040830151606084015160001a601b60ff82161015612a7357601b015b8060ff16601b14158015612a8b57508060ff16601c14155b15612a995760009350612b00565b60408051600080825260208083018085528a905260ff8516838501526060830187905260808301869052925160019360a0808501949193601f19840193928390039091019190865af1158015612af3573d6000803e3d6000fd5b5050506020604051035193505b50505092915050565b600080612b1583611b3d565b905080600160a060020a031684600160a060020a03161480612b50575083600160a060020a0316612b4584610c3c565b600160a060020a0316145b80612b605750612b6081856127ac565b949350505050565b81600160a060020a0316612b7b82611b3d565b600160a060020a031614612b8e57600080fd5b600081815260026020526040902054600160a060020a031615612bc85760008181526002602052604090208054600160a060020a03191690555b5050565b6000806000612bdb8585613667565b600084815260086020908152604080832054600160a060020a0389168452600790925290912054909350612c1690600163ffffffff6136f016565b600160a060020a038616600090815260076020526040902080549193509083908110612c3e57fe5b90600052602060002001549050806007600087600160a060020a0316600160a060020a0316815260200190815260200160002084815481101515612c7e57fe5b6000918252602080832090910192909255600160a060020a0387168152600790915260408120805484908110612cb057fe5b6000918252602080832090910192909255600160a060020a0387168152600790915260409020805490612ce79060001983016139a1565b50600093845260086020526040808520859055908452909220555050565b6000612d118383613702565b50600160a060020a039091166000908152600760209081526040808320805460018101825590845282842081018590559383526008909152902055565b6000908152601060209081526040808320600301548352600f909152902060040154600160a060020a031690565b612d8461391f565b60008281526010602090815260408083206003908101548452600f835292819020815160e08101835281548152600180830154600160c060020a0319780100000000000000000000000000000000000000000000000082021683870152600160e860020a031960e860020a68010000000000000000830481028216858801526b0100000000000000000000009092049091021660608084019190915284519081018552600280850180547fffff00000000000000000000000000000000000000000000000000000000000060f060020a90910216835297850180548751601f9582161561010002600019019091169290920493840188900488028201880190965282815292969395608088019591949385820193909291830182828015612eec5780601f10612ec157610100808354040283529160200191612eec565b820191906000526020600020905b815481529060010190602001808311612ecf57829003601f168201915b505050918352505060029190910154600160a060020a03166020918201529082526005830154828201526006830180546040805182850281018501825282815294019392830182828015612f5f57602002820191906000526020600020905b815481526020019060010190808311612f4b575b5050505050815250509050919050565b612f798282613785565b600980546000838152600a60205260408120829055600182018355919091527f6e1540171b6c0c960b71a7020d9f60077f6af931a8bbf590da0223dacf75c7af015550565b6000806000612fcd85856137e0565b6000848152600b6020526040902054600260001961010060018416150201909116041561300b576000848152600b6020526040812061300b916139c5565b6000848152600a602052604090205460095490935061303190600163ffffffff6136f016565b915060098281548110151561304257fe5b906000526020600020015490508060098481548110151561305f57fe5b6000918252602082200191909155600980548490811061307b57fe5b600091825260209091200155600980549061309a9060001983016139a1565b506000938452600a6020526040808520859055908452909220555050565b60208281015183516060808601518585015160a0808801516040808a01518a87015160008a815260108c52838120548451600160c060020a03198916818f0152948501869052600160e860020a03198085169a86019a909a52988216608085015260e060020a909802600160e060020a031981169584019590955260c08084528751908401528651999a339a7fd1bee02d125ba8e411e91a3117e8dfb167a57d7b9ad5a4679984bbea395a068f9995969395929492839260e0840192908b01918190849084905b8381101561319757818101518382015260200161317f565b50505050905090810190601f1680156131c45780820380516001836020036101000a031916815260200191505b5097505050505050505060405180910390a45050565b604080516020808252818301909252606091829160009182919080820161040080388339019050509250600091505b602082101561328f57506008810260020a84027fff000000000000000000000000000000000000000000000000000000000000008116156132845780838381518110151561325357fe5b9060200101907effffffffffffffffffffffffffffffffffffffffffffffffffffffffffffff1916908160001a9053505b600190910190613209565b50909392505050565b6132a182611a1b565b15156132ac57600080fd5b6000828152600b6020908152604090912082516132cb92840190613867565b505050565b6000806132e585600160a060020a0316613830565b15156132f45760019150613434565b6040517f150b7a020000000000000000000000000000000000000000000000000000000081523360048201818152600160a060020a03898116602485015260448401889052608060648501908152875160848601528751918a169463150b7a0294938c938b938b93909160a490910190602085019080838360005b8381101561338757818101518382015260200161336f565b50505050905090810190601f1680156133b45780820380516001836020036101000a031916815260200191505b5095505050505050602060405180830381600087803b1580156133d657600080fd5b505af11580156133ea573d6000803e3d6000fd5b505050506040513d602081101561340057600080fd5b5051600160e060020a031981167f150b7a020000000000000000000000000000000000000000000000000000000014925090505b50949350505050565b600160a060020a038116151561345257600080fd5b600c54604051600160a060020a038084169216907f8be0079c531659141344cd1fd0a4f28419497f9722a3daafe3b4186f6b6457e090600090a3600c8054600160a060020a031916600160a060020a0392909216919091179055565b6000600f60006134be85856127da565b8152602081019190915260400160002060040154600160a060020a03169392505050565b6000806134ed613a09565b6134f8888888612507565b6040805160e081018252600160e060020a0319891681526020810188905291935081016000815260200185600281111561352e57fe5b815260200161353d8a8a6127da565b8152600060208083018290526001604093840181905286835260108252918390208451815463ffffffff191660e060020a90910417815590840151818301559183015160028301805494955085949192909160ff191690838181111561359f57fe5b021790555060608201518160020160016101000a81548160ff021916908360028111156135c857fe5b02179055506080820151600382015560a08201516004909101805460c09093015115156101000261ff001992151560ff1990941693909317919091169190911790557f21a8d89e1f3c6e3eaa19284633750b71cf1081477114f3e2a30d8052f74b9db061363589896127da565b60408051918252600160e060020a031989166020830152818101859052519081900360600190a1509695505050505050565b81600160a060020a031661367a82611b3d565b600160a060020a03161461368d57600080fd5b600160a060020a0382166000908152600360205260409020546136b790600163ffffffff6136f016565b600160a060020a039092166000908152600360209081526040808320949094559181526001909152208054600160a060020a0319169055565b6000828211156136fc57fe5b50900390565b600081815260016020526040902054600160a060020a03161561372457600080fd5b60008181526001602081815260408084208054600160a060020a031916600160a060020a038816908117909155845260039091529091205461376591613838565b600160a060020a0390921660009081526003602052604090209190915550565b600160a060020a038216151561379a57600080fd5b6137a48282612d05565b6040518190600160a060020a038416906000907fddf252ad1be2c89b69c2b068fc378daa952ba7f163c4a11628f55a4df523b3ef908290a45050565b6137ea8282612b68565b6137f48282612bcc565b6040518190600090600160a060020a038516907fddf252ad1be2c89b69c2b068fc378daa952ba7f163c4a11628f55a4df523b3ef908390a45050565b6000903b1190565b81810182811015611b6157fe5b6040805160608181018352600080835260208301919091529181019190915290565b828054600181600116156101000203166002900490600052602060002090601f016020900481019282601f106138a857805160ff19168380011785556138d5565b828001600101855582156138d5579182015b828111156138d55782518255916020019190600101906138ba565b506138e1929150613a46565b5090565b8280548282559060005260206000209081019282156138d557916020028201828111156138d55782518255916020019190600101906138ba565b6040805161012081018252600080825260208201819052918101829052606081019190915260808101613950613845565b815260200160008152602001606081525090565b604080516080810182526000808252602082018190529181019190915260608082015290565b604080518082019091526000808252602082015290565b8154818355818111156132cb576000838152602090206132cb918101908301613a46565b50805460018160011615610100020316600290046000825580601f106139eb57506128b5565b601f0160209004906000526020600020908101906128b59190613a46565b6040805160e08101825260008082526020820181905290918201908152602001600081526000602082018190526040820181905260609091015290565b610c3991905b808211156138e15760008155600101613a4c5600a165627a7a723058203635ffe20c942c25bd7aa4cde237dc646f8714ea955dec8db26ed26cc21b34eb0029",
  "source": "pragma solidity ^0.4.24;\n\nimport {ERC721Token} from \"openzeppelin-solidity/contracts/token/ERC721/ERC721Token.sol\";\nimport {ECRecovery} from \"openzeppelin-solidity/contracts/ECRecovery.sol\";\nimport \"openzeppelin-solidity/contracts/lifecycle/Pausable.sol\";\n\ncontract FlightSeatsGlobalDistributor is ERC721Token(\"Flight Seat Distributor\", \"FLIGHT-SEAT\"), Pausable {\n\n    enum CabinClass {Economy, Business, First}\n    enum SeatOccupiedStatus {Vacant, Occupied}\n\n    /**\n     * Ensure the given message sender is the passenger who owns the seat or the airline of the flight\n     */\n    modifier onlyAirlineOrPassengerOf(uint256 _seatId) {\n        require(getAirlineAddressForSeat(_seatId) == msg.sender || ownerOf(_seatId) == msg.sender, \"Must be airline or passenger who owns the seat\");\n        _;\n    }\n\n    /**\n     * Ensure the given message sender is the airline of the flight\n     */\n    modifier onlyAirlineOf(uint256 _seatId) {\n        require(getAirlineAddressForSeat(_seatId) == msg.sender, \"Must be airline of the flight\");\n        _;\n    }\n\n    /**\n     * Ensure the given message sender is the passenger who owns the seat\n     */\n    modifier onlyPassengerOf(uint256 _seatId) {\n        require(ownerOf(_seatId) == msg.sender, \"Must be passenger who owns the seat\");\n        _;\n    }\n\n    modifier onlyAirlineOfFlight(bytes8 _flightNumber, uint _departureDateTime){\n        require(getAirlineAddressForFlight(_flightNumber, _departureDateTime) == msg.sender, \"Must be airline of the flight\");\n        _;\n    }\n\n    struct Airline {\n        bytes2 code;\n        string name;\n        address airlineAddress;\n    }\n\n    struct Flight {\n        bytes32 flightId;\n        bytes8 flightNumber;\n        bytes3 origin;\n        bytes3 destination;\n        Airline airline;\n        uint departureDateTime;\n        uint256[] seatIds;\n    }\n\n    struct Seat {\n        bytes4 seatNumber;\n        uint price;\n        SeatOccupiedStatus occupiedStatus;\n        CabinClass cabin;\n        bytes32 flightId;\n        bool checkedIn;\n        bool isSeat;\n    }\n\n    struct BoardingPass {\n        uint256 id;\n        uint256 seatId;\n        bytes32 barcodeString;\n        bytes passportScanIpfsHash;\n    }\n\n    struct BookingRefund {\n        address recipient;\n        uint amount;\n    }\n\n    address[] public activeAirlines;\n\n    mapping(address => bytes32[]) internal flightIds; // airlines to their belonging flightIds\n\n    mapping(bytes32 => Flight) internal flights; // flightIds to flights.\n\n    mapping(uint256 => Seat) internal seats; // seatIds to seats.\n\n    mapping(uint256 => BoardingPass) internal seatBoardingPasses; // seatIds to boarding passes.\n\n    mapping(address => BookingRefund[]) internal airlineRefundsToBeProcessed;\n\n    function getBoardingPassForSeat(uint _seatId) public view returns (uint256, uint256, bytes32, bytes) {\n        return(seatBoardingPasses[_seatId].id, seatBoardingPasses[_seatId].seatId, seatBoardingPasses[_seatId].barcodeString, seatBoardingPasses[_seatId].passportScanIpfsHash);\n    }\n\n    function getActiveAirlines() public view returns (address[]) {\n        return activeAirlines;\n    }\n\n    function getFlightId(bytes8 _flightNumber, uint _departureDateTime) public pure returns (bytes32){\n        return keccak256(abi.encodePacked(_flightNumber, \"_\", _departureDateTime));\n    }\n\n    function getSeatId(bytes8 _flightNumber, uint _departureDateTime, bytes4 _seatNumber) public pure returns (uint256){\n        return uint256(keccak256(abi.encodePacked(_flightNumber, \"_\", _departureDateTime, \"_\", _seatNumber)));\n    }\n\n    function getFlightIdsForAirline(address _airlineAddress) public view returns (bytes32[] memory) {\n        return flightIds[_airlineAddress];\n    }\n\n    function getFlight(bytes32 _flightId) public view returns (bytes32,bytes8,bytes3,bytes3,string,uint,bytes2){\n        return (flights[_flightId].flightId, flights[_flightId].flightNumber, flights[_flightId].origin, flights[_flightId].destination, flights[_flightId].airline.name, flights[_flightId].departureDateTime, flights[_flightId].airline.code);\n    }\n\n    function getSeat(uint256 _seatId) public view returns(uint, bytes4, uint, SeatOccupiedStatus, CabinClass, bool, bool) {\n        return (_seatId, seats[_seatId].seatNumber, seats[_seatId].price, seats[_seatId].occupiedStatus, seats[_seatId].cabin, seats[_seatId].checkedIn, seats[_seatId].isSeat);\n    }\n\n    function getSeatsForFlight(bytes32 _flightId) public view returns (uint256[]){\n        return flights[_flightId].seatIds;\n    }\n\n    function getFlightOfSeat(uint256 _seatId) private view returns (Flight){\n        return flights[seats[_seatId].flightId];\n    }\n\n    function getAirlineAddressForSeat(uint _seatId) private view returns (address){\n        return flights[seats[_seatId].flightId].airline.airlineAddress;\n    }\n\n    function getAirlineAddressForFlight(bytes8 _flightNumber, uint _departureDateTime) private view returns (address){\n        return flights[getFlightId(_flightNumber, _departureDateTime)].airline.airlineAddress;\n    }\n\n    constructor() public {\n        bytes8 _flightNumber = 0x4241313235000000;\n        uint _departureDateTime = 1543734893;\n        bytes32 _flightId = getFlightId(_flightNumber, _departureDateTime);\n        bytes32 _expectedSignature = keccak256(abi.encodePacked(\"\\x19Ethereum Signed Message:\\n32\", _flightId));\n\n        emit AddressRecoveredEvent(_flightNumber, _departureDateTime, _flightId, _expectedSignature);\n\n        createFlight(stringToBytes8(\"BA125\"),stringToBytes3(\"LHR\"),stringToBytes3(\"JFK\"),1543734893,stringToBytes2(\"BA\"),\"British Airways\",0x6885F585cc82a6856534d86C71D87DC3525FEeB2,abi.encodePacked(\"\"));\n//        createFlight(stringToBytes8(\"DL555\"),stringToBytes3(\"LHR\"),stringToBytes3(\"JFK\"),1542412800,stringToBytes2(\"DL\"),\"Delta Airlines\",0x082aa507f3b514e18e44a94714d1dad67b2acbeb,\"0x063eee441348324e236587bffcc7d08a6f540e99c5f9ef9f1cecacf07c6ab72a500935688d06cfec13f2a729c82ccd0b2fde5388ead27ab35874a56b4ad2f2df01\");\n\n        bytes4[] memory _seatNumbersPrepopulated = new bytes4[](3);\n        uint256[] memory _seatPricesPrepopulated = new uint256[](3);\n\n        _seatNumbersPrepopulated[0] = stringToBytes4(\"1A\");\n        _seatNumbersPrepopulated[1] = stringToBytes4(\"1B\");\n        _seatNumbersPrepopulated[2] = stringToBytes4(\"1C\");\n\n        _seatPricesPrepopulated[0] = 10000000000000000000;\n        _seatPricesPrepopulated[1] = 9000000000000000000;\n        _seatPricesPrepopulated[2] = 8000000000000000000;\n//\n        addSeatInventoryToFlightCabin(stringToBytes8(\"BA125\"), 1543734893, _seatNumbersPrepopulated, _seatPricesPrepopulated,CabinClass.First);\n//        addSeatInventoryToFlightCabin(stringToBytes8(\"DL555\"), 1542412800, _seatNumbersPrepopulated, _seatPricesPrepopulated,CabinClass.First);\n//\n        _seatNumbersPrepopulated[0] = stringToBytes4(\"2A\");\n        _seatNumbersPrepopulated[1] = stringToBytes4(\"2B\");\n        _seatNumbersPrepopulated[2] = stringToBytes4(\"2C\");\n\n        _seatPricesPrepopulated[0] = 6000000000000000000;\n        _seatPricesPrepopulated[1] = 5000000000000000000;\n        _seatPricesPrepopulated[2] = 4000000000000000000;\n//\n        addSeatInventoryToFlightCabin(stringToBytes8(\"BA125\"), 1543734893, _seatNumbersPrepopulated, _seatPricesPrepopulated,CabinClass.Business);\n//       addSeatInventoryToFlightCabin(stringToBytes8(\"DL555\"), 1542412800, _seatNumbersPrepopulated, _seatPricesPrepopulated,CabinClass.Business);\n\n        _seatNumbersPrepopulated[0] = stringToBytes4(\"3A\");\n        _seatNumbersPrepopulated[1] = stringToBytes4(\"3B\");\n        _seatNumbersPrepopulated[2] = stringToBytes4(\"3C\");\n\n        _seatPricesPrepopulated[0] = 3000000000000000000;\n        _seatPricesPrepopulated[1] = 2000000000000000000;\n        _seatPricesPrepopulated[2] = 1000000000000000000;\n//\n        addSeatInventoryToFlightCabin(stringToBytes8(\"BA125\"), 1543734893, _seatNumbersPrepopulated, _seatPricesPrepopulated,CabinClass.Economy);\n//        addSeatInventoryToFlightCabin(stringToBytes8(\"DL555\"), 1542412800, _seatNumbersPrepopulated, _seatPricesPrepopulated,CabinClass.Economy);\n\n   }\n\n    function createFlight(\n        bytes8 _flightNumber,\n        bytes3 _origin,\n        bytes3 _destination,\n        uint256 _departureDateTime,\n        bytes2 _airlineCode,\n        string _airlineName,\n        address _airlineAddress,\n        bytes _signature\n    )\n    whenNotPaused\n    public\n    returns (bytes32) {\n        bytes32 _flightId = getFlightId(_flightNumber, _departureDateTime);\n        bytes32 _expectedSignature = keccak256(abi.encodePacked(\"\\x19Ethereum Signed Message:\\n32\", _flightId));\n\n//        emit AddressRecoveredEvent(_flightNumber, _departureDateTime, _flightId, _expectedSignature);\n        if (msg.sender != owner) {\n            require(ECRecovery.recover(_expectedSignature, _signature) == _airlineAddress, \"Invalid signature\");\n            //TODO solve the _signature problem\n        }\n        require(_departureDateTime > now, \"Flight has departed\");\n\n        Airline memory _airline = Airline({\n            code: _airlineCode,\n            name: _airlineName,\n            airlineAddress: _airlineAddress\n            });\n\n//        bytes32 _flightId = getFlightId(_flightNumber, _departureDateTime);\n\n        flights[_flightId] = Flight({\n            flightId: _flightId,\n            flightNumber: _flightNumber,\n            origin: _origin,\n            destination: _destination,\n            airline: _airline,\n            departureDateTime: _departureDateTime,\n            seatIds: new uint[](0)\n            });\n\n        activeAirlines.push(_airlineAddress);\n        flightIds[_airlineAddress].push(_flightId);\n        return _flightId;\n    }\n\n\n    event AddressRecoveredEvent (\n        bytes8 flightNumber,\n        uint departureDateTime,\n        bytes32 flightId,\n        bytes32 signature\n    );\n\n\n    function addSeatInventoryToFlightCabin(bytes8 _flightNumber,\n        uint _departureDateTime,\n        bytes4[] _seatNumbers,\n        uint[] _seatPrices,\n        CabinClass cabin\n    )\n    onlyAirlineOfFlight(_flightNumber, _departureDateTime)\n    whenNotPaused\n    public\n    {\n        bytes32 _flightId = getFlightId(_flightNumber, _departureDateTime);\n        for(uint i=0; i<_seatNumbers.length; i++){\n            flights[_flightId].seatIds.push(createSeat(_flightNumber, _departureDateTime, _seatNumbers[i], _seatPrices[i], cabin));\n        }\n    }\n\n\n    function  createSeat(\n        bytes8 _flightNumber,\n        uint _departureDateTime,\n        bytes4 _seatNumber,\n        uint _price,\n        CabinClass _cabin\n    )\n    private returns (uint256){\n        uint256 _seatId = getSeatId(_flightNumber, _departureDateTime, _seatNumber);\n        Seat memory _seat = Seat({\n            seatNumber: _seatNumber,\n            price: _price,\n            occupiedStatus: SeatOccupiedStatus.Vacant,\n            cabin: _cabin,\n            flightId: getFlightId(_flightNumber, _departureDateTime),\n            checkedIn: false,\n            isSeat: true\n            });\n\n        seats[_seatId] = _seat;\n\n        emit SeatCreatedEvent(getFlightId(_flightNumber, _departureDateTime), _seatNumber, _seatId);\n        return _seatId;\n    }\n\n    event SeatCreatedEvent (\n        bytes32 flightId,\n        bytes4 seatNumber,\n        uint256 seatId\n    );\n\n\n    // function to book a flight, set seat state to occupied, take payment from passenger and send to airline, mint new seat token and send to passenger.\n    function bookSeat(uint256 _seatId)\n    whenNotPaused\n    public\n    payable\n    returns (uint)\n    {\n        require(flights[seats[_seatId].flightId].departureDateTime > now, \"Seat no longer available, flight has departed\");\n        require(seats[_seatId].occupiedStatus == SeatOccupiedStatus.Vacant, \"Seat must not be already occupied\");\n        require(msg.value == seats[_seatId].price, \"Passenger must pay amount equal to price of seat\");\n\n        address _airlineAddress = getAirlineAddressForSeat(_seatId);\n\n        if(exists(_seatId)){ // seat will already exist if was previously booked/minted and subsequently cancelled. In this case the seat should have been returned to the airline.\n            require(ownerOf(_seatId) == _airlineAddress, \"Error, cannot book seat, seat already exists but does not belong to airline\");\n            safeTransferFrom(_airlineAddress, msg.sender, _seatId);\n        }\n        else{\n            _mint(msg.sender, _seatId);\n            _setTokenURI(_seatId, uint256ToString(_seatId));\n        }\n\n        approve(_airlineAddress, _seatId);\n        _airlineAddress.transfer(msg.value);\n        seats[_seatId].occupiedStatus = SeatOccupiedStatus.Occupied;\n\n        emit SeatBookedEvent(msg.sender, _seatId, getFlightOfSeat(_seatId).flightNumber, getFlightOfSeat(_seatId).departureDateTime, getFlightOfSeat(_seatId).origin, getFlightOfSeat(_seatId).destination, seats[_seatId].seatNumber);\n\n        return _seatId;\n    }\n\n    event SeatBookedEvent (\n        address indexed seatOwner,\n        uint256 indexed seatId,\n        bytes8 flightNumber,\n        uint departureDateTime,\n        bytes3 origin,\n        bytes3 destination,\n        bytes4 seatNumber\n    );\n\n\n    function checkinPassenger(uint256 _seatId, bytes32 _barcodeString, bytes memory _passportScanIpfsHash)\n    onlyPassengerOf(_seatId)\n    whenNotPaused\n    public\n    returns (uint256)\n    {\n        Flight memory _flight = getFlightOfSeat(_seatId);\n\n        require(getFlightOfSeat(_seatId).departureDateTime > now, \"Too late to check in, flight has departed\");\n        require(seats[_seatId].occupiedStatus == SeatOccupiedStatus.Occupied, \"Seat must be occupied\");\n        require(seats[_seatId].checkedIn == false, \"Seat is already checked in\");\n\n        uint256 _boardingPassId = uint256(keccak256(abi.encodePacked(_barcodeString, \"_\", _passportScanIpfsHash)));\n\n        _mint(msg.sender, _boardingPassId);\n        _burn(msg.sender, _seatId);\n        approve(getFlightOfSeat(_seatId).airline.airlineAddress, uint256(_boardingPassId));\n\n        BoardingPass memory _boardingPass = BoardingPass({\n            id: _boardingPassId,\n            seatId: _seatId,\n            barcodeString: _barcodeString,\n            passportScanIpfsHash: _passportScanIpfsHash\n        });\n\n        seatBoardingPasses[_seatId] = _boardingPass;\n        seats[_seatId].checkedIn = true;\n        emitBoardingPassGeneratedEvent(_boardingPass, _flight);\n\n        return _boardingPassId;\n    }\n\n    function emitBoardingPassGeneratedEvent(BoardingPass memory _boardingPass, Flight memory _flight) private view {\n        emit BoardingPassGeneratedEvent(_boardingPass.id, msg.sender, _boardingPass.seatId, _boardingPass.passportScanIpfsHash, _flight.flightNumber, _flight.departureDateTime, _flight.origin, _flight.destination, seats[_boardingPass.seatId].seatNumber);\n    }\n\n    event BoardingPassGeneratedEvent (\n        uint256 indexed boardingPassId,\n        address indexed boardingPassOwner,\n        uint256 indexed seatId,\n        bytes passportScanIpfsHash,\n        bytes8 flightNumber,\n        uint departureDateTime,\n        bytes3 origin,\n        bytes3 destination,\n        bytes4 seatNumber\n    );\n\n\n    function getBarcodeStringParametersForBoardingPass(uint256 _seatId) public view returns (bytes8, bytes3, bytes3, uint256, bytes4){\n        Flight memory _flight = getFlightOfSeat(_seatId);\n        return (_flight.flightNumber, _flight.origin, _flight.destination, _flight.departureDateTime, seats[_seatId].seatNumber);\n    }\n\n\n    /**\n  * Cancel the seat booking and obtain refund for passenger\n  */\n    function cancelSeatBookingAirlineInitiated(uint256 _seatId)\n    onlyAirlineOf(_seatId)\n    whenNotPaused\n    public\n    payable\n    returns (uint)\n    {\n        require(seats[_seatId].occupiedStatus == SeatOccupiedStatus.Occupied, \"Seat must be occupied\");\n        require(msg.value == seats[_seatId].price, \"Airline must send correct refund amount for passenger in transaction\");\n\n        safeTransferFrom(ownerOf(_seatId), getAirlineAddressForSeat(_seatId), _seatId);\n        seats[_seatId].occupiedStatus = SeatOccupiedStatus.Vacant;\n\n        ownerOf(_seatId).transfer(msg.value);\n\n        return _seatId;\n    }\n\n\n\n    /**\n  * Cancel the seat booking and obtain refund for passenger\n  */\n    function cancelSeatBookingPassengerInitiated(uint256 _seatId)\n    onlyPassengerOf(_seatId)\n    whenNotPaused\n    public\n    returns (uint)\n    {\n        require(seats[_seatId].occupiedStatus == SeatOccupiedStatus.Occupied, \"Seat must be occupied\");\n        require(seats[_seatId].checkedIn == false, \"You cannot cancel a booking after checkin is completed\");\n\n        safeTransferFrom(msg.sender, getAirlineAddressForSeat(_seatId), _seatId);\n        seats[_seatId].occupiedStatus = SeatOccupiedStatus.Vacant;\n\n        BookingRefund memory _refund = BookingRefund({\n            recipient: msg.sender,\n            amount: seats[_seatId].price\n            });\n\n        airlineRefundsToBeProcessed[getAirlineAddressForSeat(_seatId)].push(_refund);\n\n        return _seatId;\n    }\n\n\n    function kill() {\n        if (msg.sender == owner) selfdestruct(owner); }\n\n\n\n\n    // create function to allow airline to burn expired seats.\n\n    // create distressed inventory reduction\n    //    function reducePriceOfVacantSeatsCloseToDeparture(int daysToDeparture, int percentagePriceReduction){\n    //\n    //    }\n\n    // airlineRefundsToBeProcessed - create function to allow airline to process this queue.\n\n\n    function stringToBytes4(string memory source) private pure returns (bytes4 result) {\n        bytes memory tempEmptyStringTest = bytes(source);\n        if (tempEmptyStringTest.length == 0) {\n            return 0x0;\n        }\n        //TODO add some requires for string length etc. see: https://medium.codylamson.com/inter-contract-communication-strings-1fa1e3c9a566\n        assembly {\n            result := mload(add(source, 32))\n        }\n    }\n\n    function stringToBytes3(string memory source) private pure returns (bytes3 result) {\n        bytes memory tempEmptyStringTest = bytes(source);\n        if (tempEmptyStringTest.length == 0) {\n            return 0x0;\n        }\n        //TODO add some requires for string length etc. see: https://medium.codylamson.com/inter-contract-communication-strings-1fa1e3c9a566\n        assembly {\n            result := mload(add(source, 32))\n        }\n    }\n\n    function stringToBytes2(string memory source) private pure returns (bytes2 result) {\n        bytes memory tempEmptyStringTest = bytes(source);\n        if (tempEmptyStringTest.length == 0) {\n            return 0x0;\n        }\n        //TODO add some requires for string length etc. see: https://medium.codylamson.com/inter-contract-communication-strings-1fa1e3c9a566\n        assembly {\n            result := mload(add(source, 32))\n        }\n    }\n\n    function stringToBytes8(string memory source) private pure returns (bytes8 result) {\n        bytes memory tempEmptyStringTest = bytes(source);\n        if (tempEmptyStringTest.length == 0) {\n            return 0x0;\n        }\n\n        assembly {\n            result := mload(add(source, 32))\n        }\n    }\n\n    function stringToBytes32(string memory source) private pure returns (bytes32 result) {\n        bytes memory tempEmptyStringTest = bytes(source);\n        if (tempEmptyStringTest.length == 0) {\n            return 0x0;\n        }\n\n        assembly {\n            result := mload(add(source, 32))\n        }\n    }\n\n    function bytes32ToString (bytes32 data) private pure returns (string) {\n        bytes memory bytesString = new bytes(32);\n        for (uint j=0; j<32; j++) {\n            byte char = byte(bytes32(uint(data) * 2 ** (8 * j)));\n            if (char != 0) {\n                bytesString[j] = char;\n            }\n        }\n        return string(bytesString);\n    }\n\n    function uint256ToString (uint data) private pure returns (string) {\n        bytes memory bytesString = new bytes(32);\n        for (uint j=0; j<32; j++) {\n            byte char = byte(bytes32(data * 2 ** (8 * j)));\n            if (char != 0) {\n                bytesString[j] = char;\n            }\n        }\n        return string(bytesString);\n    }\n\n}\n",
  "sourcePath": "/Users/james.glennon/eth-dev/flight-seats-global-distributor-lite-server/contracts/FlightSeatsGlobalDistributor.sol",
  "compiler": {
    "name": "solc",
    "version": "0.4.24+commit.e67f0147.Emscripten.clang"
  },
  "schemaVersion": "2.0.1",
  "updatedAt": "2018-08-24T16:31:44.138Z"
}